:020000040800F2
:1000000000000220D97D0008297E0008498E0008E2
:10001000297E0008297E0008297E000800000000D3
:10002000000000000000000000000000116A01084C
:10003000297E000800000000B16A0108156B010864
:10004000297E0008297E0008297E0008297E0008F4
:10005000297E0008297E00086D810008297E00089D
:100060008981000897810008297E0008297E000800
:10007000297E0008297E0008297E0008297E0008C4
:10008000297E0008297E0008297E0008297E0008B4
:10009000297E0008297E0008297E0008297E0008A4
:1000A000297E0008297E0008297E0008297E000894
:1000B000297E0008A5810008297E0008297E000805
:1000C000297E0008297E0008297E0008297E000874
:1000D000297E00089D860008297E00083D8A0008C8
:1000E000297E0008297E0008297E0008297E000854
:1000F00031F20008297E0008297E00085D8600088C
:10010000297E0008297E0008297E0008297E000833
:10011000297E0008297E0008297E0008297E000823
:10012000297E0008297E0008297E0008297E000813
:10013000297E00084DF20008297E0008297E00086B
:10014000297E0008297E0008297E0008297E0008F3
:10015000297E0008297E0008297E0008297E0008E3
:10016000297E0008297E0008297E0008297E0008D3
:10017000297E0008297E0008297E00080000000072
:10018000297E0008297E0008297E0008297E0008B3
:10019000297E0008297E0008297E00080000000052
:0C01A000297E0008297E0008297E000846
:1001C0000348044B834202D0034B03B118477047E6
:1001D0008C3E00208C3E0020000000000548064BAD
:1001E0001B1AD90F01EBA301491002D0034B03B135
:1001F000184770478C3E00208C3E00200000000015
:1002000010B5064C237843B9FFF7DAFF044B13B15E
:100210000448AFF300800123237010BD8C3E002002
:10022000000000009CAC010808B5044B1BB1044958
:100230000448AFF30080BDE80840CFE700000000AD
:10024000903E00209CAC0108830730B547D0541E77
:10025000002A3ED0CAB2034601E0013C39D303F87C
:10026000012B9D07F9D1032C2CD9CDB205EB052527
:100270000F2C05EB054535D9A4F1100222F00F0C27
:1002800003F1100EE6444FEA121C1A46C2E900556B
:10029000C2E9025510327245F8D10CF1010214F096
:1002A0000C0F03EB021204F00F0C13D0ACF104039B
:1002B00023F003030433134442F8045B9342FBD15D
:1002C0000CF003042CB1C9B21C4403F8011BA34277
:1002D000FBD130BD64461346002CF4D1F9E7034648
:1002E0001446C0E71A46A446E0E700BF70B50F4BBE
:1002F0000F4DAB42A3EB050607D0B610002455F80E
:10030000043B01349847A642F9D81AF0C7FC094DBE
:10031000094B5E1BAB424FEAA60606D0002455F8F7
:10032000043B01349847A642F9D870BD78CF010844
:1003300078CF010878CF010880CF0108002301465B
:100340001A46184600F014B838B5074D074C2C1B58
:10035000A41005D0013C55F8043D9847002CF9D174
:10036000BDE838401AF0A0BC84CF010880CF010856
:1003700070B4164D2C681CB365681F2D23DC38B98A
:10038000AB1C0135656044F82310002070BC704739
:1003900004EB850C0228CCF88820D4F888614FF053
:1003A000010202FA05F246EA0206C4F88861CCF8B6
:1003B0000831E5D1D4F88C311343C4F88C31DFE730
:1003C000034C2C60D8E74FF0FF30DFE7A83E002059
:1003D000AC3E002000207047024A0349034800F069
:1003E0000BB900BF80060020410E000898060020CF
:1003F0000C4B4168994210B5044601D000F020FD35
:10040000A168094B994202D0204600F019FDE1682D
:10041000064B994204D02046BDE8104000F010BDC4
:1004200010BD00BF3C400020A44000200C41002033
:10043000002070472DE9F8432A4C2B49DFF8BC9087
:10044000DFF8BC80294FC4F83811002504230822A6
:10045000294604F15C00264EE360C4E90055C4E976
:100460000455A5606566A561FFF7EEFE214B636745
:100470000822294604F1C400C4E90749C4E90987F0
:10048000C4E91A55C4E91E552567C4F8CC50C4F810
:100490008050E662FFF7D8FE174BC4F8DC302946DF
:1004A00004F16803082204F59670C4F88430C4E9A6
:1004B0002298C4E92476C4E93455C4E93855C4F80F
:1004C000D850C4F83451C4F8E850FFF7BDFE04F129
:1004D000D003C4E93C98C4E93E76C4F8EC30BDE8EA
:1004E000F88300BF3C400020D9030008550F0008E6
:1004F000790F00080900010012000200ED0E00084B
:10050000150F0008F8B5254BD3F838310646002BF7
:100510003CD0234FD7E90134013B04D51DE05A1CE0
:1005200004F1680419D0B4F90C50013B002DF6D148
:100530001C4BE360C4E90155C4E9045565662560B8
:10054000A5610822294604F15C00FFF77DFEC4E99D
:100550000C55C4E911552046F8BD3D680DB12F4634
:10056000D8E74FF4D671304600F068F8044680B101
:100570000423C0E900530C302946A0604FF4D07228
:100580002546FFF761FE3C602F46C3E7FFF752FFA9
:10059000BFE70C2338603360DDE700BF3C4000203C
:1005A000800600200100FFFF436B03B17047044B3E
:1005B000044AD3F838314263002BF7D13AE700BF41
:1005C0003C400020F1030008704700BF704700BFA7
:1005D000024A0349002000F00FB800BF8006002047
:1005E000D5030008024A0349002000F005B800BF07
:1005F00080060020310400082DE9F84307468846AC
:1006000016464FF00009D6E90154013D10D4A389E4
:10061000012B08D9B4F90E3001332146384602D0F7
:10062000C04749EA0009013D6B1C04F16804EED1A2
:100630003668002EE7D14846BDE8F8832DE9F04F33
:1006400001F10B05162D83B0064623D8102900F2C0
:10065000AF8000F0ABFC102518230220C04F3B44B4
:10066000A3F108025C68944200F024816368E268A8
:10067000A16823F00303CA602344304691605A689E
:1006800042F001025A6000F093FC0834204603B0A7
:10069000BDE8F08F35F0070500F18A80A94200F22D
:1006A000878000F083FCB5F5FC7FC0F06B816B0A9E
:1006B00000F08280042B00F22381AB0903F13900A2
:1006C00003F1380EC300A64F3B44A3F1080C5C684D
:1006D000A44507D10DE0002AE16880F2E5808C4551
:1006E00007D00C46636823F003035A1B0F2AF2DD80
:1006F0007046DFF870823C69444500F0C280636850
:1007000023F0030CACEB05030F2B00F33F81002B10
:10071000C7E9048880F22A81BCF5007FD7F804E09D
:1007200080F0CE804FEADC0101314FEA5C1C0123EE
:1007300003FA0CF357F83120A2604EEA030E07EBE0
:10074000C103083BE360C7F804E047F83140D460D8
:1007500083104FF0010C0CFA03FCF44532D81CEA6C
:100760000E0F08D120F003004FEA4C0C1CEA0E0FCC
:1007700000F10400F8D007EBC00AD6468146DEF847
:100780000C300BE0596821F003014A1B0F2A1C466C
:10079000DB6800F3C180002A80F2D5809E45F1D14C
:1007A00009F1010919F0030F0EF1080EE7D116E166
:1007B0000C233360002469E74FF4007340204FF0AE
:1007C0003F0E80E7BC68636823F00309A94503D3A3
:1007D000A9EB05030F2B57DCDFF88CB1DBF8002009
:1007E00004EB09031032082002EB0508009300F027
:1007F0006FFBD7F808140131024605D008F1FF3825
:100800008044414201EA080841463046019200F026
:10081000D1FBB0F1FF3F019A824600F0D280009BED
:10082000834200F2CC80DBF804104144CBF8041082
:10083000084602F1FF3C40F0F4801AEA0C0F40F049
:10084000F080D7F808A0C84448F00100CAF80400B6
:10085000DBF82C208A42DBF8302038BFCBF82C1094
:100860008A4238BFCBF83010544620F00308A84520
:10087000A8EB050301D30F2B06DC304600F098FBF4
:1008800098E7D7F804E063E7621943F0010345F005
:10089000010565603046BA60536000F089FB08349A
:1008A000204603B0BDE8F08FA2682344D1603046F3
:1008B0008A60E4E6DC68A3427FF4D8AE023018E731
:1008C000BCF5206F4FEA5C2272D3142A00F2088133
:1008D00002F15C03DB005B32F918FB5808399942DE
:1008E00003D1E4E09B68994204D05A6822F00302E5
:1008F0006245F7D8D968C4E902318C60DC6027E72B
:10090000142B61D9542B00F2F4802B0B03F16F00F0
:1009100003F16E0EC300D6E6D4F808C0304666195F
:1009200045F001056560CCF80C30C3F808C042F012
:100930000103C7E90466C6E902887360625000F0EB
:1009400037FB0834A2E6214430464A6842F00102EF
:100950004A6054F8082FD3609A6000F029FB95E6AE
:10096000B8070020C007002078410020A44430468A
:10097000DCF8043043F00103CCF8043000F018FB3D
:10098000083483E6E80805F1080367E6621943F0D6
:10099000010145F0010565603046C7E90422C2E95E
:1009A0000288516044F80C3000F002FB08346DE618
:1009B0004FEA9C1202F13903DB0038328CE7BC426B
:1009C00028D0BC68606850E703F15C0003F15B0E5F
:1009D000C30078E65AF80839534540F0D78010F044
:1009E000030F00F1FF30F5D17B6823EA0C037B6035
:1009F0004FEA4C0C9C453FF6E5AEBCF1000F04D12C
:100A0000E0E64FEA4C0C09F104091CEA030FF8D0A8
:100A10004846B0E6DBF804004044CBF8040002F19D
:100A2000FF3CD7F8081401316DD0009BAAEB0303FB
:100A30001844CBF804001AF00703009341D0C3F127
:100A400008018A44D0440A4408EA0C01521A02EA16
:100A50000C013046019100F0ADFA421C6FD00199B3
:100A6000A0EB0A0000EB0108DBF80420C7F808A09F
:100A700048F001001144BC42CAF80400CBF804104D
:100A80003FF4E6AEB9F10F0F40D96268A9F10C004E
:100A900020F0070002F001020243626005232218E1
:100AA0000F28C2E9013352D8DAF80400D0E69210D8
:100AB0004FF0010C0CFA02F24EEA020EC7F804E005
:100AC00019E70AEB080101EA0C01521A02EA0C01CB
:100AD0003046019100F06EFA431CC0D10099C3E783
:100AE000542A17D84FEA1C3202F16F03DB006E3232
:100AF000F2E6B3F5AA7F17D8EB0B03F1780003F108
:100B0000770EC300DFE5C7F808A494E70123CAF80D
:100B10000430B2E6B2F5AA7F23D84FEADC3202F104
:100B20007803DB007732D7E640F25452934223D861
:100B3000AB0C03F17D0003F17C0EC300C3E5009B09
:100B4000A3F108029044A8EB0A0800218CE704F105
:100B50000801304600F078F8DBF80410D7F808A058
:100B6000A2E740F254539A420CD84FEA9C4202F159
:100B70007D03DB007C32AFE64FF47E737F204FF0C5
:100B80007E0EA0E54FF47E737E22A5E67B682FE7FC
:100B90002DE9F84306460820894600F099F9DFF868
:100BA000A4800546304600F001FAD8F808305F68A6
:100BB00027F00307A7F11104A4EB09042C44B4FBAC
:100BC000F5F4013C05FB04F4A54208DC00213046A5
:100BD00000F0F0F9D8F808303B44984205D0304690
:100BE00000F0E6F90020BDE8F8836142304600F0ED
:100BF000E1F901300FD0114AD8F808303F1B47F017
:100C000001075F60136830461B1B136000F0D0F9CA
:100C10000120BDE8F8830021304600F0CBF9D8F878
:100C20000820831A0F2BDADD43F001035360044BD5
:100C300002491B68C01A0860D1E700BF7C41002050
:100C4000C00B0020B807002000297CD02DE9F0411E
:100C50000C46804600F0AAF954F8043C754FA4F104
:100C6000080523F001016818BE684268864222F038
:100C7000030200F08380DE07426000EB020C33D4F5
:100C800054F8084CDCF804302D1B2144AC6807F103
:100C9000080C644503F0010364D0D5F80CE0C4F8F7
:100CA0000CE0CEF80840002B00F0818041F00103F9
:100CB0006B600160B1F5007F22D27868CB08012219
:100CC000490901338A40024357F833107A6007EB31
:100CD000C302083AC5E9021247F83350CD604046D6
:100CE000BDE8F04100F064B9DCF80430DB072BD537
:100CF00041F00103B1F5007F44F8043C0160DCD30E
:100D0000B1F5206F4FEA512353D28B0903F139001B
:100D100003F13802C300F818FB580838984203D191
:100D200061E09B68984204D05A6822F003028A422C
:100D3000F7D8D868C5E902308560DD604046BDE877
:100D4000F04100F035B97047114407F1080C836891
:100D500063453FD0C268DA60936041F001036B6085
:100D60006950A7E7002B5FD10A44D0E90213CB609A
:100D7000996042F001036B60AA50B0E7DB070A44B8
:100D800007D454F8083CED1A1A44D5E90213CB6095
:100D9000996042F001036B60274BBD601B68934272
:100DA0009DD8264B40461968FFF7F2FE97E711449D
:100DB000CDE7142B08D9542B1DD80B0B03F16F0072
:100DC00003F16E02C300A6E703F15C0003F15B02CE
:100DD000C300A0E741F00103C7E90455C5E902CC0F
:100DE0006B6069507BE779689210012404FA02F283
:100DF0000A437A609EE7B3F5AA7F06D8CB0B03F1CE
:100E0000780003F17702C30085E740F25452934221
:100E100006D88B0C03F17D0003F17C02C3007AE756
:100E20004FF47E737E2276E741F001036B60016030
:100E300055E700BFB8070020C40B00207841002010
:100E400070B539B106460C4608B1436B83B3B4F9AB
:100E50000C3013B90025284670BD2146304600F0FD
:100E6000CDF8E36A054633B1E1693046984700287A
:100E7000B8BF4FF0FF35A3891B061CD4216B41B1CD
:100E800004F14003994202D03046FFF7DDFE002313
:100E90002363616C21B13046FFF7D6FE0023636403
:100EA000FFF792FB0023A381FFF790FB284670BD5C
:100EB000FFF77AFBCBE721693046FFF7C5FEDDE798
:100EC000024B01461868FFF7BBBF00BF9006002029
:100ED000082802D14FF48050704708B500F064F93B
:100EE000162303604FF0FF3008BD00BF10B50C465D
:100EF000B1F90E1000F05EF9002803DB236D034406
:100F0000236510BDA38923F48053A38110BD00BFC6
:100F1000002070472DE9F0410C46B1F90C101F4636
:100F2000CB05054616460BD421F48051A1813B46E2
:100F3000B4F90E1032462846BDE8F04100F020B862
:100F4000B4F90E100223002200F04AF9B4F90C1093
:100F5000EAE700BF10B50C46B1F90E1000F040F9F9
:100F6000B4F90C30421C0EBF23F4805343F4805379
:100F70002065A38110BD00BFB1F90E1000F02CB8A0
:100F800038B50C46084D8446114620461A460023C3
:100F90002B60644619F07DFE431C00D038BD2B68E1
:100FA000002BFBD0236038BDAC410020704700BF50
:100FB000704700BF38B5074D0022044608462A6036
:100FC00006F0F0FE431C00D038BD2B68002BFBD090
:100FD000236038BDAC41002038B5074D00220446DF
:100FE00008462A6019F052FE431C00D038BD2B6819
:100FF000002BFBD0236038BDAC410020B1F90C20A0
:101000002DE9F04116070C4680464ED4496842F45B
:1010100000630029A38163DDA56A002D42D0002171
:1010200012F48052D8F80060C8F80010E16964D169
:1010300001234046A847451C02466ED0B4F90C3047
:10104000A56AE169580705D56368D21A236B0BB10D
:10105000E36BD21A00234046A847431C4FD1D8F86F
:101060000010B4F90C301D2940D8314ACA40D707C6
:101070003CD52269226023F40062A281DD044FF096
:101080000002626001D5002945D0216BC8F80060DC
:1010900041B104F14003994202D04046FFF7D4FD2C
:1010A000002323630020BDE8F0810E69002EF9D0F3
:1010B0000D680E6092070CBF4B690023AD1B8B605F
:1010C0000BE02B463246E169676A4046B847B0F10B
:1010D000000CA5EB0C05664406DD002DF1DCE1E714
:1010E000E16B002998DCDDE7B4F90C3043F04003F4
:1010F000A3814FF0FF30BDE8F081226DA2E7B4F983
:101100000C302269226023F40062A281DB044FF0DC
:1011100000026260B9D52065B7E7D8F80030002B2F
:101120008CD01D2B01D0162BDED1C8F80060B9E79A
:101130000100402010B5044682B008B1436B53B1A2
:10114000B1F90C0008B902B010BD204602B0BDE8EC
:101150001040FFF753BF0191FFF726FA0199EFE71F
:10116000A0B138B50C4B1D6804460DB16B6B4BB18B
:10117000B4F90C0000B938BD21462846BDE8384016
:10118000FFF73CBF2846FFF70FFAF1E7034A04498F
:101190000448FFF731BA00BF900600208006002007
:1011A0003511000898060020014B1868704700BFF1
:1011B0009006002038B50C46084D8446114620465E
:1011C0001A4600232B60644619F062FD431C00D0D0
:1011D00038BD2B68002BFBD0236038BDAC4100200C
:1011E00038B50C46084D8446114620461A46002361
:1011F0002B60644619F04BFD431C00D038BD2B68B2
:10120000002BFBD0236038BDAC4100200000000063
:1012100000000000000000000000000000000000CE
:1012200000000000000000000000000000000000BE
:1012300000000000000000000000000000000000AE
:1012400030B490F800F020F007016FF0000C10F0BF
:10125000070491F820F040F048804FF000046FF050
:101260000700D1E9002391F840F000F1080082FA6C
:101270004CF2A4FA8CF283FA4CF3A2FA8CF34BBB37
:10128000D1E9022382FA4CF200F10800A4FA8CF2B0
:1012900083FA4CF3A2FA8CF3E3B9D1E9042382FA7E
:1012A0004CF200F10800A4FA8CF283FA4CF3A2FA93
:1012B0008CF37BB9D1E9062301F1200182FA4CF2CB
:1012C00000F10800A4FA8CF283FA4CF3A2FA8CF332
:1012D000002BC6D0002A04BF04301A4612BAB2FA54
:1012E00082F200EBD20030BC7047D1E9002304F059
:1012F0000305C4F100004FEAC50514F0040F91F88E
:1013000040F00CFA05F562EA05021CBF63EA05032A
:1013100062464FF00004AAE700B50B4C256814465E
:10132000EE681A4685B003460D464CB10749009554
:10133000CDE901143046064900F0AAF800F092F811
:1013400004490C46F3E700BF9006002034BD0108B5
:1013500044BD010840BD010808B513460022FFF74F
:10136000DBFF00BF88420ED98B1883420BD900EBFC
:10137000020C002A6ED0624613F801CD02F801CDAE
:101380009942F9D170470F2A0FD8034602F1FF3C6A
:10139000002A5FD00CF1010C013B8C4411F8012BA9
:1013A00003F8012F6145F9D1704740EA01039B071B
:1013B00051D1A2F1100370B501F1200C23F00F05FB
:1013C00001F1100E00F11004AC441B095EF8105C32
:1013D00044F8105C5EF80C5C44F80C5C5EF8085C49
:1013E00044F8085C5EF8045C44F8045C0EF1100EEE
:1013F000E64504F11004E9D1013312F00C0F01EBC2
:10140000031102F00F0400EB031328D0043C24F076
:1014100003064FEA940C1E441C1F8E465EF8045BC4
:1014200044F8045FB442F9D10CF1010402F0030264
:1014300003EB840301EB840102F1FF3C4AB10CF1A0
:10144000010C013B8C4411F8012B03F8012F61457D
:10145000F9D170BD704702F1FF3C03469AE722467E
:10146000EAE700BF08B5062000F088FA012006F080
:10147000A7FC00BF0CB400B583B004AB53F8042B39
:10148000019302F0C5FF03B05DF804EB02B07047B2
:101490000EB410B583B005AB064C53F8042B019382
:1014A0000146206802F0B4FF03B0BDE8104003B06D
:1014B000704700BF90060020032A30B415D941EAD6
:1014C0000004A40784460B4604D0541E0FE0043ADF
:1014D000032A08D91946604653F8044B5CF8045BAC
:1014E000A542F4D0F1E760461946541E7AB1431E76
:1014F0000139021901E09A4209D013F8010F11F8DD
:1015000001CF6045F7D0A0EB0C0030BC7047002045
:1015100030BC704708B410B5002A9DB0044636DBD5
:101520004FF40273ADF814304FF000031B93029197
:10153000069120AB17D0013A4FF6FF710492079243
:10154000ADF816101F9A019302A901F069FD421C23
:1015500001DA8B232360029B00221A701DB0BDE8C4
:10156000104001B070474FF6FF7104920792ADF83A
:1015700016101F9A019302A901F052FD431C01DAD3
:101580008B2323601DB0BDE8104001B070478B2352
:1015900003604FF0FF30F5E70CB410B5214B002984
:1015A0001C689CB038DB4FF000034FF402721B93B1
:1015B000ADF81420029006901FAB18D001394FF6F9
:1015C000FF7204910791ADF8162002A91E9A0193AB
:1015D000204601F025FD421C01DA8B232360029B8B
:1015E00000221A701CB0BDE8104002B070474FF6E0
:1015F000FF7204910791ADF8162002A91E9A01937B
:10160000204601F00DFD431C01DA8B2323601CB042
:10161000BDE8104002B070478B2323604FF0FF30CD
:10162000F5E700BF90060020024B01461868FFF75F
:1016300005B800BF90060020024B01461868FFF76E
:1016400003BB00BF90060020844641EA000313F06C
:1016500003036DD1403A41D351F8043B40F8043BB9
:1016600051F8043B40F8043B51F8043B40F8043B7C
:1016700051F8043B40F8043B51F8043B40F8043B6C
:1016800051F8043B40F8043B51F8043B40F8043B5C
:1016900051F8043B40F8043B51F8043B40F8043B4C
:1016A00051F8043B40F8043B51F8043B40F8043B3C
:1016B00051F8043B40F8043B51F8043B40F8043B2C
:1016C00051F8043B40F8043B51F8043B40F8043B1C
:1016D00051F8043B40F8043B403ABDD2303211D3BC
:1016E00051F8043B40F8043B51F8043B40F8043BFC
:1016F00051F8043B40F8043B51F8043B40F8043BEC
:10170000103AEDD20C3205D351F8043B40F8043BBB
:10171000043AF9D2043208D0D2071CBF11F8013BB9
:1017200000F8013B01D30B8803806046704700BF7F
:10173000082A13D38B078DD010F003038AD0C3F18E
:101740000403D21ADB071CBF11F8013B00F8013B70
:1017500080D331F8023B20F8023B7BE7043AD9D32F
:10176000013A11F8013B00F8013BF9D20B78037004
:101770004B7843708B788370604670470CB410B51B
:101780009CB01EAB029106916FF00041049107914D
:10179000084953F8042B0591002402A901931B94D6
:1017A00001F03EFC029B1C701CB0BDE8104002B072
:1017B000704700BF0802FFFF0EB430B59CB06FF059
:1017C00000411FAB049107910A4953F8042B029082
:1017D00000240690084D0868019302A905951B9402
:1017E00001F01EFC029B1C701CB0BDE8304003B031
:1017F000704700BF900600200802FFFF0EB400B53E
:1018000082B003AB816853F8042B019300F05CF9BC
:1018100002B05DF804EB03B0704700BF0FB400B531
:10182000074983B004AB086853F8042B816801931F
:1018300000F04AF903B05DF804EB04B0704700BF54
:101840009006002038B5D0F818410CB1002038BD02
:1018500080210546FEF7F2FE0246C5F8180130B1B8
:10186000031F7C3243F8044F9342FBD1EEE74FF065
:10187000FF3038BD30B51F2983B0054609D8D0F8F0
:1018800018310C4653B153F8240043F8242003B018
:1018900030BD162303604FF0FF30F8E7802101923E
:1018A000FEF7CCFE019AC5F8180103460028F2D0D5
:1018B000011F00F17C05002041F8040FA942FBD173
:1018C000E1E700BF1F2938B505461FD8D0F8182119
:1018D0000C466AB152F8213053B1012B06D0591C85
:1018E00010D0002142F8241020469847002038BD2F
:1018F000284602F08BFD224601462846BDE83840C6
:1019000002F06EBD16230360012038BD162303606C
:101910004FF0FF3038BD00BF1F292CD838B5D0F8A4
:1019200018310C460546A3B153F8242003EB840379
:101930004AB1511C0BD0012A07D0002520461D605A
:101940009047284638BD012038BD032038BD02200D
:1019500038BD8021FEF772FE0346C5F8180138B184
:10196000021F00217C3042F8041F8242FBD1DBE7DA
:101970004FF0FF3038BD4FF0FF30704738B5144B93
:101980001F281D681ED8D5F81821044662B152F8E8
:1019900020304BB1012B05D0591C0FD0002142F84B
:1019A00020109847002038BD284602F02FFD22461F
:1019B00001462846BDE8384002F012BD16232B60D0
:1019C000012038BD16232B604FF0FF3038BD00BF1B
:1019D00090060020124B1F2870B51E6809D8D6F853
:1019E000183104460D464BB153F8240043F82450F7
:1019F00070BD162333604FF0FF3070BD802130463C
:101A0000FEF71CFE0346C6F818010028F3D0021F9B
:101A100000217C3042F8041F8242FBD1E4E700BF82
:101A20009006002038B50C4B1D68D5F818410CB154
:101A3000002038BD80212846FEF700FEC5F81801B9
:101A400038B1031F00F17C0243F8044F9342FBD1ED
:101A5000EEE74FF0FF3038BD9006002038B5184B48
:101A60001F281D6828D80446D5F81801A0B150F8E1
:101A7000243000EB84004BB15A1C0BD0012B07D053
:101A80000025056020469847284638BD012038BD0E
:101A9000032038BD022038BD80212846FEF7CEFD48
:101AA000C5F8180140B1031F00F17C01002243F882
:101AB000042F8B42FBD1DAE74FF0FF3038BD00BF77
:101AC00090060020000000002DE9F04FBFB01C463A
:101AD0000491914609930546089005F011F80368B2
:101AE00010931846FFF7ACFB0F901DB16B6B002BEA
:101AF00001F020800499B1F90C204B6E900405D4BC
:101B000042F4005223F400538A814B669F0401F192
:101B10003E81049AB2F90C301E0740F1DD80126953
:101B2000002A00F0D98003F01A030A2B00F0E380AA
:101B30009FED817B0023CDE92233CDE911338DED7B
:101B40000C7B2EAA0E93219292460693CB469BF8CD
:101B50000030002B00F064815C4604E014F8013F83
:101B6000002B00F04181252BF8D1B4EB0B0540F0A0
:101B70003E812378002B00F053814FF000038DF855
:101B8000673000276378059704F1010B4FF0FF39A8
:101B90000BF1010B9846A8F12003582B00F24D8160
:101BA000DFE813F083024B014B017E024B014B0136
:101BB0004B014B014B014B01460278024B01510294
:101BC00056024B017302590059005900590059003F
:101BD00059005900590059004B014B014B014B0171
:101BE0004B014B014B014B014B014B016800C601FE
:101BF0004B01C6014B014B014B014B01AE024B01A6
:101C00004B01B8004B014B014B014B014B01CE0086
:101C10004B014B0152064B014B014B014B014B0158
:101C20004B014B014B014B014B01A0026A00C60165
:101C3000C601C6019B026A004B014B018E024B019B
:101C4000EA02BA00D902D4024B01B3024B01D00020
:101C50004B014B017206A8F1300300221BF8018BE7
:101C600002EB820203EB4202A8F13003092BF5D903
:101C7000059290E747F01007BD0640F1B281099B3D
:101C8000073323F007031A46596852F8083B0992B4
:101C90000A460029C0F2B781B9F1000F9DF86740EC
:101CA000C0F2B88127F08001029153EA020140F0AE
:101CB000B0810121B9F1000F40F05383002940F0B9
:101CC000F18417F00103079300F0318530238DF87C
:101CD000B7300DF1B70573E0049D0898294604F06C
:101CE00013F9002841F05380B5F90C3003F01A03C2
:101CF0000A2B7FF41DAF049BB3F90E30002BFFF6C7
:101D000017AF0499089823464A463FB0BDE8F04F04
:101D100001F0FAB847F0100717F0200200F05281E6
:101D2000099B073323F0070319465A6851F8083B0B
:101D30000991002114E000BF000000000000000035
:101D400047F0100717F0200200F03281099B07339B
:101D500023F0070319465A6851F8083B09910121FD
:101D60000024B9F1000F8DF8674006DB27F08000F2
:101D7000029053EA02009DD0029F012900F04A819F
:101D8000022900F0F8822EAD03F00701DB0843EAD8
:101D90004273D208303153EA0206284605F8011D85
:101DA000F2D1FB0740F1F582302900F0F2823023B6
:101DB000023805F8013C2EAB1B1A02970793054623
:101DC000079B4B45B8BF4B46039300230B9314B1BD
:101DD000039B01330393029B13F002033FD0039B49
:101DE0000233039302233AE0B4EB0B0518D0239B94
:101DF0002B442393229B0133072BCAE900B522937E
:101E000005DC0AF1080A069B2B440693B1E6049907
:101E1000089821AA04F006F930B90DF1B80AF2E7E2
:101E2000239B002B40F00487049B9B895B0600F1F9
:101E3000AE8706983FB0BDE8F08FB8F1000FEFD045
:101E400000238DF8673001238DF89080039307936A
:101E500024AD4FF000090297CDF82C904B46029A22
:101E6000239C12F084020A9205D1059A0399561A0E
:101E7000002E00F3FE829DF867208AB1229A0DF1B0
:101E8000670101320134CAF80010072A4FF001013E
:101E900023942292CAF8041000F326830AF1080A58
:101EA00083B1229A1AA901320234CAF80010072A13
:101EB0004FF0020123942292CAF8041000F3228307
:101EC0000AF1080A0A9B802B00F0CA81079BA9EB44
:101ED0000306002E00F30682029BDE0500F1598105
:101EE000079BCAF804301C44229BCAF800500133F7
:101EF000072B2394229300F365820AF1080A029BC0
:101F00005A0705D5059B039A9D1A002D00F30683F9
:101F1000DDE9052303998A42ACBF9B185B18069341
:101F2000002C40F03B82002322930DF1B80A0EE60C
:101F3000099B073323F00703B3EC027B55EC174BE7
:101F4000099325F0004315938DED147ADDE9140112
:101F5000BD4B4FF0FF328DED0C7B05F0E5FE002808
:101F600040F0F083DDE91401B74B4FF0FF3205F08C
:101F7000BDFE002840F0E6830022002320462946CB
:101F800005F0AAFE002840F03D869DF86740AF4D61
:101F900027F080030293AE4BB8F1470FD8BF1D4620
:101FA0004FF00009032303930793CDF82C900EE71D
:101FB000099951F8043B099117F0100100F0BA8318
:101FC0000121CDE6099951F8043B099117F0100160
:101FD0007FF4AFAE17F040023FF4ABAE0A469BB2BF
:101FE000A7E6099AFC0652F8043B099206D4780643
:101FF00004D543F3C03211461BB24AE6DA17114644
:102000000029BFF649AE5B4262EB42022D2401215A
:10201000A7E6029F0A2B72F1000180F001853033A0
:102020008DF8B7300123029707930DF1B705C7E686
:10203000099B53F8042B0592002A80F27383059ABA
:102040000993524205929BF8003047F004079FE540
:102050005A4612F8018BB8F12A0F00F02287A8F136
:102060003003092B98BF4FF0000900F2A18612F847
:10207000018B09EB890903EB4909A8F13003092B0E
:10208000F5D949EAE979934685E59BF8003047F0B0
:1020900080077DE52B238DF867309BF8003077E5CE
:1020A0009BF8003047F0010772E59DF867209BF828
:1020B0000030002A7FF46CAD20228DF8672067E5A0
:1020C0009BF800306C2B03BF9BF8013047F02007D2
:1020D0000BF1010B47F010075AE59BF8003047F071
:1020E000400755E5099B00228DF8672053F8042B23
:1020F000099301238DF890200393079324ADA8E65C
:102100009BF8003047F0080742E5099C54F8045B4F
:1021100000268DF86760002D00F0C583B9F1000F2F
:10212000C0F21A854A463146284600F029FF0028A9
:1021300000F03286431B079323EAE3730994B14608
:102140009DF86740029703930B9640E69BF800309A
:1021500047F020071CE5099A52F8043B099247F61C
:102160003002ADF868203B4A119247F00207002286
:1021700002214FF07808F3E5BD0640F15C83099B2E
:10218000069A1B681A60D2175A60099B0433099398
:10219000DDE4B8F1650F40F32181DDE90C01002297
:1021A000002305F08FFD002800F0F581229B2A4ACC
:1021B000CAF80020013301340122072B2394229313
:1021C000CAF8042000F3A9840AF1080A1B9B0E9A9E
:1021D000934280F2A2820F9B109A1C44CAE900230A
:1021E000229B23940133072B229300F350830AF19F
:1021F000080A0E9B5D1E002D7FF781AE102D229BDD
:10220000164F40F3D480DDF82080DDF810901026C2
:1022100005E00AF1080A103D102D40F3C880013393
:102220001034072BCAE90076CDE92234F1DD21AA6A
:102230004946404603F0F6FE00287FF4F5ADDDE99F
:1022400022340DF1B80AE6E7FFFFEF7F78BD010801
:1022500074BD010898BD0108B4BD01082CAE010889
:10226000059B039A9E1A002E7FF730AE102E229BFC
:10227000AF4F24DD52462146AA46089C049D04E047
:10228000103E102E02F1080216DD0133103110202D
:10229000072BCDE9223117605060F1DD21AA2946D4
:1022A000204603F0BFFE00287FF4BEAD103E102E86
:1022B000DDE922312EAAE8DC55460C469246013370
:1022C0003444072BCDE92234CAF80070CAF8046000
:1022D00000F33584079BA9EB0306002E0AF1080AD8
:1022E0007FF7FAAD102E229B914F2CDD52462146EE
:1022F000B246089C2E464FF01009049D06E0AAF154
:10230000100ABAF1100F02F1080218DD01338848F3
:102310001031072BC2E90009CDE92231EFDD21AAF6
:102320002946204603F07EFE00287FF47DADAAF109
:10233000100ABAF1100FDDE922312EAAE6DC35468B
:102340000C465646924601333444072BCDE92234DD
:10235000CAF80070CAF8046000F3D2810AF1080AD2
:10236000BAE50129029F4FF000033FF458AE02295D
:102370001A467FF408AD11982EAD03F00F011B092A
:10238000415C05F8011D43EA0273120953EA020198
:10239000F3D12EAB5B1B0297079311E504990898C4
:1023A00021AA03F03FFE00283FF4BDAD3CE5013318
:1023B0002C44072BCAF80070CAF80450CDE9223427
:1023C0007FF79BAD0499089821AA03F02BFE002803
:1023D0007FF42AAD239C0DF1B80A90E50E9B229E56
:1023E000012B04F1010406F101060AF1080840F38B
:1023F0003E810123072ECDE92264CAF80050CAF8B5
:10240000043000F3F3820F9B109A01361C44072E10
:10241000C8E90023CDE9226400F3F58208F1080839
:102420000E9BDDE90C0103F1FF390022002305F0CA
:1024300049FC002840F03B81013601354C44072E11
:10244000CDE92264C8F80050C8F8049000F31D815B
:1024500008F10808129BC8F8043001361C44072E06
:102460001DABCDE92264C8F80030ABDC08F1080AE6
:1024700045E5102E229A2F4F28DD51462046CA46A8
:10248000089C1393A946049D04E0103E102E01F110
:10249000080116DD013210301023072ACDE9222071
:1024A0000F604B60F1DD21AA2946204603F0BAFDFA
:1024B00000287FF4B9AC103E102EDDE922202EA9B1
:1024C000E8DC139B4D460446D1468A46013234442B
:1024D000072ACDE92224CAF80070CAF8046000F384
:1024E000D9820AF1080AC6E404990898139321AA2C
:1024F00003F098FD00287FF497AC239C139B0DF10B
:10250000B80ACDE40499089821AA03F08BFD0028AD
:102510007FF48AAC239C0DF1B80AD3E4102D229BE2
:10252000044F25DDDDF82080DDF81090102608E04E
:102530002CAE01081CAE0108103D102D0AF1080A4E
:1025400016DD01331034072BCAE90076CDE92234B9
:10255000F2DD21AA4946404603F064FD00287FF4DD
:1025600063AC103D102DDDE922340DF1B80AE8DC32
:1025700001332C44072BCAE90075CDE922347FF7DB
:10258000C7AC0499089821AA03F04CFD00287FF4F9
:102590004BAC239CBCE41B99002940F38A820B9F1F
:1025A0000E9B9F42A8BF1F46002F0BDD229B0133CD
:1025B0003C44072BCAE900572394229300F3C983B4
:1025C0000AF1080A0B9E002FA8BFF61B002E00F38D
:1025D00074811B9B0E9A9342C0F29E81029AD0078F
:1025E00000F19A810E9A0B99D31A561A9E42A8BFEF
:1025F0001E46002E0EDD229ACAF8046001320D44F8
:102600003444072ACAF800502394229200F3AD8381
:102610000AF1080A002EACBF9D1B1D46002D7FF756
:102620006EAC102D229BB84F7FF7C1AEDDF8208035
:10263000DDF81090102605E00AF1080A103D102D73
:102640007FF7B5AE01331034072BCAE90076CDE928
:102650002234F1DD21AA4946404603F0E3FC00287C
:102660007FF4E2ABDDE922340DF1B80AE6E7029B24
:10267000D9073FF5BEAE0123072ECDE92264CAF883
:102680000050CAF804307FF7E5AE0499089821AAF3
:1026900003F0C8FC00287FF4C7ABDDE922640DF12C
:1026A000B808D7E6CDF81C902EADFFF789BB0E9B7E
:1026B000012B7FF7CFAE112B934F40F38982DDF8CA
:1026C00020A0102507E008F10808A9F11009B9F1C8
:1026D000100F40F37D8201361034072EC8E90075D3
:1026E000CDE92264EFDD049921AA504603F09AFC5B
:1026F00000287FF499ABDDE922640DF1B808E4E726
:102700000499089821AA03F08DFC00287FF48CAB73
:10271000239C0DF1B80AFFF7DFBB029BDD077FF5B5
:10272000EEAB58E509939BF80030FFF731BA2EADB8
:10273000FFF746BB17F040021CBF0A469BB20121BF
:10274000FFF70EBBDDE90C0102460B4605F0ECFA83
:10275000002840F06E83B9F1FF3F28F0200600F01A
:102760001383472E04D1B9F1000F08BF4FF00109C0
:10277000DDE90C0147F4807200290292C0F2C682A2
:102780009DED0C7B8DED167B00230A93B8F1650F50
:1027900000F0998200F3D582B8F1450F00F09382E2
:1027A0001FAB01931CAB009302219DED160B089803
:1027B0001BAB4A4602F066FCF907054640F1C080B3
:1027C00000EB0904DDE916010022002305F07AFA86
:1027D000002840F029821F9BA34206D230215A1CB8
:1027E0001F9219701F9B9C42F9D81B9A0B925B1B7E
:1027F000472E0E9300F0A980B8F1660F40F0BC8020
:102800000B9A07F00103002A43EA090340F35783B8
:10281000002B40F034830B9B039307934FF0660823
:102820000A9B002B00F06C822D238DF867304FF04F
:102830000009FFF7CDBAFC067DD478067BD5099B4D
:10284000069A1B681A80A0E4304B119317F02002FF
:1028500000F0BE80099B073323F0070319465A682E
:1028600051F8083B0991F90740F1AF8053EA0201A2
:1028700000F0AB8030218DF868108DF8698047F04A
:1028800002070221FFF76CBA214B1193DEE704998E
:10289000089821AA03F0C6FB00287FF4C5AA239C50
:1028A0000DF1B80AA5E44B46062B28BF0623194DA7
:1028B000079309940393FFF7CCBA102E229B124F73
:1028C00040F393812246DDF82090049C4FF01008DD
:1028D00005E00AF1080A103E102E40F3858101330D
:1028E0001032072BCAE90078CDE92232F1DD21AAA6
:1028F0002146484603F096FB00287FF495AADDE9BF
:1029000022320DF1B80AE6E72CAE010884BD0108B9
:1029100098BD0108ACBD01080F9A10991444CAE98A
:102920000012229A23940132072A229200F3FC819A
:102930000AF1080A56E6099B069A1B681A6024E405
:102940001F9B1B1A0E931B9B0B930B9BDA1C11DB1B
:1029500099450FDB0E9B0B9A934200F34F82FE07C3
:102960000B9B00F1778223EAE372039207934FF007
:10297000670855E7A8F102080B9B8DF87480591E73
:1029800000291B91B6BFC3F101012B232D23092977
:102990008DF8753000F35381302330318DF8763067
:1029A00004238DF8771012930E9A129B012A134478
:1029B000079340F31A82079B0F9A1344079323EA65
:1029C000E373039300230B932AE70221FFF7C8B9AF
:1029D000099951F8043B099117F010017FF443AFB6
:1029E00017F040021CBF9BB20A463CE704990898C6
:1029F00021AA03F017FB00287FF416AADDE9226460
:102A00000DF1B808FFE40499089821AA03F00AFB25
:102A100000287FF409AADDE922640DF1B808FFE47B
:102A2000CDE90287BD4E2EAD4FF0050E991841F14C
:102A30000001A6FB010727F0030000EB9700091A2D
:102A4000581A9846944662F100034FF0CC3202FBCC
:102A500000F206FB0322A0FB063003F0010702444C
:102A6000A7FB0E074018B8F10A0F4FEA530300F115
:102A700030007CF1000C43EAC27305F8010D4FEA07
:102A80005202D3D2DDE902872EAB5B1B029707937C
:102A9000FFF796B904990898139321AA03F0C2FA94
:102AA00000287FF4C1A9239C139B0DF1B80AFFF7FE
:102AB000E2B9229B9A4ACAF800200133013401226C
:102AC000072B23942293CAF8042000F3A0800AF174
:102AD000080A002946D1029B0E9A03F00103134312
:102AE0003FF40DAA0F9B10991A19CAE90013229BF3
:102AF00023920133072B229300F3CB800AF1080ABB
:102B00000E99CAF8005001338C18072BCDE92234F6
:102B1000CAF804107FF7F1A954E40499089821AA8F
:102B200003F080FA00287FF47FA9239C0DF1B80AF6
:102B3000FFF74CBB0898FDF737FDFEF7DBBF0499A4
:102B4000089821AA03F06EFA00287FF46DA9239C4F
:102B50000DF1B80AFFF7BAB92846FEF771FB034634
:102B6000FFF7E9BA0F9B10981A19CAE90003229BD4
:102B700023920133072B229300F38B800AF1080A7A
:102B80000029BDDA4E421031664F80F21681DDF821
:102B90002080DDF81090102405E00AF1080A103EAC
:102BA000102E40F30A8101331032072BCAE900745A
:102BB000CDE92232F1DD21AA4946404603F032FA3E
:102BC00000287FF431A9DDE922320DF1B80AE6E7E9
:102BD00001364C44072ECDE92264C8F80070C8F8CD
:102BE00004907FF735AC50E5144601333444072B8D
:102BF000CDE92234CAF80070CAF8046057DC0AF143
:102C0000080AE6E42D248DF86740FFF7C0B904995F
:102C1000089821AA03F006FA00287FF405A91B9959
:102C2000239C0DF1B80A54E71B9A0B922346DEE56C
:102C30000499089821AA03F0F5F9FFF7F5B80DF10A
:102C40008304364E23461846A6FB0123DB0803EB1C
:102C50008302A1EB4202303200F8012C0A46632ABB
:102C6000194600F1FF33EEDC303103F8011C831EFE
:102C7000A34280F021810DF1750213F8011B02F8C7
:102C8000011FA342F9D13EAB181AA0F171031293B0
:102C90008AE60499089821AA03F0C4F900287FF471
:102CA000C3A8DDE922321B990DF1B80A68E704993F
:102CB000089821AA03F0B6F900287FF4B5A8239C50
:102CC0000DF1B80A85E409F1010303930221039C85
:102CD00008981FAB01931CAB009322469DED160B89
:102CE0001BAB02F0CFF9B8F1660F054604447FF440
:102CF00069AD2B78302B00F08E801B9B1C4461E566
:102D0000DDF828909DF86740FFF761B801F10043B6
:102D100017932D2316900A9338E500BFCDCCCCCC69
:102D2000B4BD01082CAE01080499089821AA03F04B
:102D300079F900287FF478A81B9B239C0DF1B80A31
:102D400050E4B8F1660F7FF42BADCDF80C90032161
:102D5000BDE70499089821AA03F064F900287FF4DC
:102D600063A8239C0DF1B80A2CE40499089821AAC1
:102D700003F058F900287FF457A81B9B0E9A239C58
:102D8000D31A0DF1B80A45E44FF00609F0E44FF00C
:102D9000FF330693FFF74DB80994CDF80C90CDF8AA
:102DA0001C909DF86740029781460B90FFF70FB883
:102DB00093464FF00009FEF7EEBE01333244072B75
:102DC000CDE92232CAF80070CAF804607FF796AEE7
:102DD0000499089821AA03F025F900287FF424A873
:102DE000DDE922320DF1B80A8AE617F001020B92F2
:102DF0007FF4E1AD23EAE373039311E5DDE90E32DD
:102E000013440B9A0793002A2DDD23EAE3730393FF
:102E10004FF0670804E5DDE916010022002304F005
:102E200051FF002837D01B9B0B931C44631B0E9350
:102E3000E6E40D9B2B4D002BB8BF2D2427F080031B
:102E40000293A8BF9DF86740274BB8BF8DF8674035
:102E5000FFF7A2B80F9A1344079323EAE37303938F
:102E60004FF06708DCE40B9B079AC3F101031A4497
:102E700022EAE273079203934FF06708D0E40F9BB6
:102E800009EB030808EB0203079323EAE3730393B8
:102E90004FF06608C4E4039BC3F101031B931C4479
:102EA00090E409999BF8013051F8049B09919346ED
:102EB00049EAE979FEF76CBE0223129374E52BB957
:102EC000012303934FF066080793A9E40F9B03F1D6
:102ED000010808EB0903079323EAE37303934FF018
:102EE00066089DE480BD01087CBD010810B4054C56
:102EF0008446134620685DF8044B0A466146FEF797
:102F0000E3BD00BF9006002070B50C468989ADF581
:102F10008D6D21F00201ADF80C101AA900910491F9
:102F20004FF4806102910591616E1991E189ADF8CC
:102F30000E10E1690791616A0991002106916946C5
:102F40000646FEF7C1FD051E07DB69463046FEF763
:102F5000F1F8002818BF4FF0FF35BDF80C305B06C4
:102F600003D5A38943F04003A38128460DF58D6D59
:102F700070BD00BF00000000000000000000000065
:102F800001F0FF01102A2BDB10F0070F08D010F81A
:102F9000013B013A8B422DD010F0070F42B3F6D11E
:102FA000F0B441EA012141EA014122F007047FF037
:102FB00000070023F0E80256083C85EA010586EA8E
:102FC000010685FA47F5A3FA87F586FA47F6A5FACA
:102FD00087F68EB9EED1F0BC01F0FF0102F00702D6
:102FE00032B110F8013B013A83EA010313B1F8D181
:102FF0000020704701387047002D06BF3546033862
:10300000073815F0010F07D1013015F4807F02BF9A
:10301000013015F4C03F0130F0BC0138704700BFEB
:103020002DE9F04FBFB00C460791924609930890E6
:1030300003F066FD036810931846FEF701F9A389B3
:103040000F901E0603D52369002B00F0A8869FED84
:10305000A47B0023CDE92233CDE911338DED0C7B28
:103060002EAA0E93219291460593D3469BF80030E9
:10307000002B00F042815C4604E014F8013F002B75
:1030800000F01981252BF8D1B4EB0B0540F0168127
:103090002378002B00F031814FF000038DF867306A
:1030A00000276378049704F1010B4FF0FF3A0BF10E
:1030B000010B9846A8F12003582B00F22B81DFE882
:1030C00013F05202290129014D0229012901290188
:1030D000290129012901150247022901200225029F
:1030E000290142025900590059005900590059005C
:1030F00059005900590029012901290129012901F3
:10310000290129012901290129016800A4012901B6
:10311000A40129012901290129017D02290129018F
:10312000950029012901290129012901A600290168
:10313000290146062901290129012901290129011D
:1031400029012901290129016F026A00A401A401B2
:10315000A4016A026A00290129015D022901B9025C
:103160009700A802A302290182022901A8002901CF
:1031700029016606A8F1300300221BF8018B02EB3F
:10318000820203EB4202A8F13003092BF5D9049225
:1031900090E747F01007BD0640F17781099B0733A0
:1031A00023F007031A46596852F8083B09920A4669
:1031B0000029C0F29581BAF1000F9DF8674007DB46
:1031C00027F08001029153EA020100F0B283029FCE
:1031D0000A2B72F1000180F06D8630338DF8B73024
:1031E0000123029706930DF1B70550E047F0100751
:1031F00017F0200200F06081099B073323F00703DA
:1032000019465A6851F8083B099100210FE047F030
:10321000100717F0200200F04581099B073323F0C7
:10322000070319465A6851F8083B09910121002407
:10323000BAF1000F8DF8674007DB27F0800002909D
:1032400053EA020000F07683029F0129C0D00229D0
:1032500000F0F1822EAD03F00701DB0843EA427370
:10326000D208303153EA0206284605F8011DF2D192
:10327000FB0740F1EE82302900F0EB823023023868
:1032800005F8013C2EAB1B1A029706930546069BD8
:103290005345B8BF5346039300230B9314B1039BCC
:1032A00001330393029B13F0020345D0039B0233C7
:1032B0000393022340E0B4EB0B051ED0239B2B4469
:1032C0002393229B0133072BC9E900B522930BDC22
:1032D00009F10809059B2B440593D9E6AFF300805B
:1032E0000000000000000000DDE9071021AA02F044
:1032F0006DFE30B90DF1B809ECE7239B002B40F0CF
:103300003C87079B9B895B0601F10C8005983FB0C9
:10331000BDE8F08FB8F1000FEFD000238DF86730D3
:1033200001238DF890800393069324AD4FF0000A9B
:103330000297CDF82CA05346029A239C12F08402E7
:103340000A9205D1DDE90312561A002E00F3048318
:103350009DF867208AB1229A0DF16701013201348C
:10336000C9F80010072A4FF0010123942292C9F8EE
:10337000041000F32A8309F1080983B1229A1AA9DB
:1033800001320234C9F80010072A4FF002012394D9
:103390002292C9F8041000F3268309F108090A9B58
:1033A000802B00F0BD81069BAAEB0306002E00F3E4
:1033B000F981029BDE0500F14A81069BC9F80430C1
:1033C0001C44229BC9F800500133072B23942293FD
:1033D00000F3588209F10809029B5A0705D5DDE977
:1033E00003239D1A002D00F30A83DDE904230399CA
:1033F0008A42ACBF9B185B180593002C40F02E82CC
:10340000002322930DF1B80930E6099B073323F01E
:103410000703B3EC027B55EC174B099325F00043EF
:1034200015938DED147ADDE91401B74B4FF0FF329F
:103430008DED0C7B04F078FC002840F01084DDE971
:103440001401B14B4FF0FF3204F050FC002840F063
:103450000684002200232046294604F03DFC002873
:1034600040F025869DF86740A84D27F08003029321
:10347000A74BB8F1470FD8BF1D464FF0000A0323F2
:1034800003930693CDF82CA008E7099AFC0652F89E
:10349000043B09921FD478061DD543F3C032114670
:1034A0001BB285E6099951F8043B099117F0100108
:1034B00000F0CD830121BAE6099951F8043B099146
:1034C00017F010017FF4A1AE17F040023FF49DAE5B
:1034D0000A469BB299E6DA1711460029BFF66BAE91
:1034E0005B4262EB42022D240121A1E6099B53F8C5
:1034F000042B0492002A80F2A283049A0993524278
:1035000004929BF8003047F00407D0E55A4612F8C1
:10351000018BB8F12A0F00F04E87A8F13003092B78
:1035200098BF4FF0000A00F2B98612F8018B0AEB3F
:103530008A0A03EB4A0AA8F13003092BF5D94AEAB3
:10354000EA7A9346B6E59BF8003047F08007AEE58F
:103550002B238DF867309BF80030A8E59BF80030EE
:1035600047F00107A3E59DF867209BF80030002A8B
:103570007FF49DAD20228DF8672098E59BF8003000
:103580006C2B03BF9BF8013047F020070BF1010BB8
:1035900047F010078BE59BF8003047F0400786E5C1
:1035A000099B00228DF8672053F8042B099301230F
:1035B0008DF890200393069324ADB7E69BF8003076
:1035C00047F0080773E5099C54F8045B00268DF862
:1035D0006760002D00F01285BAF1000FC0F21A8466
:1035E000524631462846FFF7CBFC002800F04586BE
:1035F000431B069323EAE3730994B2469DF86740A0
:10360000029703930B9649E69BF8003047F020079A
:103610004DE5099A52F8043B099247F63002ADF89D
:1036200068203C4A119247F00207002202214FF025
:103630007808FCE5BD0640F18183099B059A1B686B
:103640001A60D2175A60099B043309930EE5B8F14A
:10365000650F40F32381DDE90C010022002304F013
:1036600031FB002800F00782229B2B4AC9F800207A
:10367000013301340122072B23942293C9F804203B
:1036800000F3958409F108091B9B0E9A934203DB12
:10369000029BDD077FF5A0AE0F9B109A1C44C9E981
:1036A0000023229B23940133072B229300F3998458
:1036B00009F108090E9B5D1E002D7FF78DAE102DC0
:1036C000229B164F40F3D380DDE907A8102605E0C2
:1036D00009F10809103D102D40F3C9800133103461
:1036E000072BC9E90076CDE92234F1DD21AA514644
:1036F000404602F06BFC00287FF403AEDDE9223483
:103700000DF1B809E6E700BFFFFFEF7F78BD0108C4
:1037100074BD010898BD0108B4BD01084CAE010894
:10372000DDE903239E1A002E7FF73DAE102E229B6B
:10373000B74F24DD4A462146A946DDE9075404E097
:10374000103E102E02F1080216DD01331031102058
:10375000072BCDE9223117605060F1DD21AA2946FF
:10376000204602F033FC00287FF4CBAD103E102E33
:10377000DDE922312EAAE8DC4D460C4691460133A4
:103780003444072BCDE92234C9F80070C9F804602D
:1037900000F31A84069BAAEB0306002E09F1080920
:1037A0007FF707AE102E229B994F2CDD4A4621460B
:1037B000B1464FF0100A2E46DDE9075406E0A9F1A4
:1037C0001009B9F1100F02F1080218DD0133904819
:1037D0001031072BC2E9000ACDE92231EFDD21AA21
:1037E0002946204602F0F2FB00287FF48AADA9F1B9
:1037F0001009B9F1100FDDE922312EAAE6DC3546B9
:103800000C464E46914601333444072BCDE9223411
:10381000C9F80070C9F8046000F3EA8109F10809E9
:10382000C7E50129029F4FF000033FF4D6AC0229FF
:103830001A467FF40FAD11982EAD03F00F011B094E
:10384000415C05F8011D43EA0273120953EA0201C3
:10385000F3D12EAB5B1B0297069318E5DDE9071049
:1038600021AA02F0B3FB00283FF4CAAD49E50133B9
:103870002C44072BC9F80070C9F80450CDE9223454
:103880007FF7A8ADDDE9071021AA02F09FFB002811
:103890007FF437AD239C0DF1B8099DE50E9B229E68
:1038A000012B04F1010406F1010609F1080840F3B7
:1038B0005B810123072ECDE92264C9F80050C9F8C5
:1038C000043000F3A2810F9B109A01361C44072E8E
:1038D000C8E90023CDE9226400F3A48108F10808B7
:1038E0000E9BDDE90C0103F1FF390022002304F0F7
:1038F000E9F9002840F05381013601354C44072E88
:10390000CDE92264C8F80050C8F8049000F33A8169
:1039100008F10808129BC8F8043001361C44072E31
:103920001DABCDE92264C8F80030ABDC08F1080912
:1039300052E50121BAF1000F7FF473AF002940F086
:103940000E8117F00103069300F07E8130238DF87D
:10395000B7300DF1B7059AE4102E229A2D4F26DDCF
:1039600049462046A9461393DDE9075404E0103E7A
:10397000102E01F1080116DD013210301023072A44
:10398000CDE922200F604B60F1DD21AA29462046B7
:1039900002F01CFB00287FF4B4AC103E102EDDE9D1
:1039A00022202EA9E8DC139B4D46044689460132AD
:1039B0003444072ACDE92224C9F80070C9F804600C
:1039C00000F3B28209F10809C2E4DDE9071021AA77
:1039D000139302F0FBFA00287FF493AC239C139B13
:1039E0000DF1B809C9E4DDE9071021AA02F0EEFAE9
:1039F00000287FF486AC239C0DF1B809CFE4102D8C
:103A0000229B044F24DDDDE907A8102609E000BF52
:103A10004CAE01083CAE0108103D102D09F108091B
:103A200016DD01331034072BC9E90076CDE92234C5
:103A3000F2DD21AA5146404602F0C8FA00287FF480
:103A400060AC103D102DDDE922340DF1B809E8DC41
:103A500001332C44072BC9E90075CDE922347FF7E7
:103A6000C4ACDDE9071021AA02F0B0FA00287FF407
:103A700048AC239CB9E41B99002940F364820B9F56
:103A80000E9B9F42A8BF1F46002F0BDD229B0133D8
:103A90003C44072BC9E900572394229300F3CF83BA
:103AA00009F108090B9E002FA8BFF61B002E00F39A
:103AB00085811B9B0E9A934280F26C810F9A10991C
:103AC0001444C9E90012229A23940132072A22924F
:103AD00000F3F28209F108090E9A0B99D31A561ACB
:103AE0009E42A8BF1E46002E0EDD229AC9F8046031
:103AF00001320D443444072AC9F80050239422921D
:103B000000F3A98309F10809002EACBF9D1B1D46D7
:103B1000002D7FF761AC102D229BBB4F7FF7A7AE26
:103B2000DDE907A8102605E009F10809103D102D70
:103B30007FF79DAE01331034072BC9E90076CDE93C
:103B40002234F1DD21AA5146404602F03FFA002816
:103B50007FF4D7ABDDE922340DF1B809E6E7CDF803
:103B600018A02EADFFF793BB029BD9073FF5A1AE7E
:103B70000123072ECDE92264C9F80050C9F80430AA
:103B80007FF7C8AEDDE9071021AA02F01FFA00286E
:103B90007FF4B7ABDDE922640DF1B808BAE60E9BFD
:103BA000012B7FF7B7AE112B974F40F36582DDF8FD
:103BB00020A0102507E008F10808A9F11009B9F1C3
:103BC000100F40F3598201361034072EC8E90075F2
:103BD000CDE92264EFDD079921AA504602F0F6F9FB
:103BE00000287FF48EABDDE922640DF1B808E4E72C
:103BF000DDE9071021AA02F0E9F900287FF481AB82
:103C0000239C0DF1B809FFF7D4BBDDE9071021AA09
:103C100002F0DCF900287FF474ABDDE922640DF1D9
:103C2000B80850E6DDE9071021AA02F0CFF9002814
:103C30007FF467ABDDE922640DF1B80850E6099323
:103C40009BF80030FFF733BA2EADFFF720BB17F01B
:103C500040021CBF0A469BB20121FFF7E8BADDE92A
:103C60000C0102460B4604F05FF8002840F05F8329
:103C7000BAF1FF3F28F0200600F0FC82472E04D165
:103C8000BAF1000F08BF4FF0010ADDE90C0147F45B
:103C9000807200290292C0F229829DED0C7B8DED8D
:103CA000167B00230A93B8F1650F00F0F28200F34F
:103CB0002482B8F1450F00F0EC821FAB01931CABDE
:103CC000009302219DED160B08981BAB524601F0A4
:103CD000D9F9F907054640F1A88000EB0A04DDE9AF
:103CE00016010022002303F0EDFF002840F025829A
:103CF0001F9BA34206D230215A1C1F9219701F9B92
:103D00009C42F9D81B9A0B925B1B472E0E9300F036
:103D10009180B8F1660F40F093800B9A07F0010391
:103D2000002A43EA0A0340F36182002B40F0198322
:103D30000B9B039306934FF0660814E2FC066FD4C6
:103D400078066DD5099B059A1B681A807BE42F4B7A
:103D5000119317F0200200F09F80099B073323F096
:103D6000070319465A6851F8083B0991F90740F1D1
:103D7000908053EA020100F08C8030218DF86810A9
:103D80008DF8698047F002070221FFF750BA204BF7
:103D90001193DEE7029AD0077FF59EAE8EE6089873
:103DA0004021FCF74BFC079B18601861002800F0CD
:103DB000B682079A40235361FFF749B9102E229B20
:103DC000114F40F3668122464FF01008DDE9074AA3
:103DD00005E009F10809103E102E40F35981013326
:103DE0001032072BC9E90078CDE92232F1DD21AA92
:103DF0002146504602F0EAF800287FF482AADDE965
:103E000022320DF1B809E6E74CAE010884BD010885
:103E100098BD01082846FDF713FA0346FFF7E9BBF2
:103E2000099B059A1B681A600DE41F9B1B1A0E93D1
:103E30001B9B0B930B9BDA1C80F28381A8F1020879
:103E40000B9B8DF87480591E00291B91B6BFC3F1DE
:103E500001012B232D2309298DF8753000F39C8156
:103E6000302330318DF8763004238DF8771012939B
:103E70000E9A129B012A1344069340F31482069B68
:103E80000F9A1344069323EAE373039300230B93DF
:103E900069E10221FFF7CBB9099951F8043B099177
:103EA00017F010017FF462AF17F040021CBF9BB205
:103EB0000A465BE7CDE90287B34E2EAD4FF0050E03
:103EC000991841F10001A6FB010727F0030000EB60
:103ED0009700091A581A9846944662F100034FF069
:103EE000CC3202FB00F206FB0322A0FB063003F0FB
:103EF00001070244A7FB0E074018B8F10A0F4FEA6A
:103F0000530300F130007CF1000C43EAC27305F862
:103F1000010D4FEA5202D3D2DDE902872EAB5B1BC3
:103F200002970693FFF7B3B9DDE9071021AA1393AF
:103F300002F04CF800287FF4E4A9239C139B0DF1B8
:103F4000B809FFF705BA229B904AC9F8002001334F
:103F500001340122072B23942293C9F8042000F393
:103F6000B88009F10809002952D1029B0E9A03F08A
:103F7000010313433FF430AA0F9B10991A19C9E9A2
:103F80000013229B23920133072B229300F33781E6
:103F900009F108090E99C9F8005001338C18072B54
:103FA000CDE92234C9F804107FF714AA6AE4DDE9E8
:103FB000071021AA02F00AF800287FF4A2A9239C86
:103FC0000DF1B809FFF760BBDDE9071021AA01F088
:103FD000FDFF00287FF495A9239C0DF1B809FFF798
:103FE000E2B9DDE9071021AA01F0F0FF00287FF413
:103FF00088A9239C0DF1B809FFF75CBB5346062B3B
:1040000028BF0623624D069309940393FFF78EB9E8
:104010000F9B10981A19C9E90003229B23920133C0
:10402000072B229300F3EB8009F108090029B1DA8C
:104030004E421031574F80F23F81DDE907A810242E
:1040400005E009F10809103E102E40F335810133D7
:104050001032072BC9E90074CDE92232F1DD21AA23
:104060005146404601F0B2FF00287FF44AA9DDE93D
:1040700022320DF1B809E6E701364C44072ECDE9AE
:104080002264C8F80070C8F804907FF741AC79E565
:10409000144601333444072BCDE92234C9F80070AB
:1040A000C9F8046000F3B98009F1080901E52D247D
:1040B0008DF86740FFF7D8B9DDE9071021AA01F0B4
:1040C00085FF00287FF41DA91B9B239C0DF1B809D7
:1040D00002E5DDE9071021AA01F078FF00287FF44E
:1040E00010A91B99239C0DF1B8093CE701F100438D
:1040F00017932D2316900A93D5E5B8F1660F7FF438
:10410000DCADCDF80CA00321039C08981FAB0193F4
:104110001CAB009322469DED160B1BAB00F0B2FFCB
:10412000B8F1660F054604447FF4D9AD2B78302BE7
:1041300000F0E7801B9B1C44D1E51B9A0B922346A1
:10414000E2E59A45FFF67AAE0E9B0B9A934200F396
:10415000CB80FE070B9B00F1FB8023EAE372039206
:1041600006934FF067080A9B002B62D02D238DF831
:1041700067304FF0000AFFF792B8DDE9071021AA77
:1041800001F024FFFFF7BDB8CDCCCCCCB4BD010805
:10419000ACBD01084CAE01080DF183048D4E2346E1
:1041A0001846A6FB0123DB0803EB8302A1EB4202C6
:1041B000303200F8012C0A46632A194600F1FF3319
:1041C000EEDC303103F8011C831EA34280F0FE8038
:1041D0000DF1750213F8011B02F8011FA342F9D17A
:1041E0003EAB181AA0F17103129341E6002B40F088
:1041F000D080012303934FF066080693B3E7DDE90F
:10420000071021AA01F0E2FE00287FF47AA8DDE978
:1042100022321B990DF1B80908E7DDE9071021AA40
:1042200001F0D4FE00287FF46CA8239C0DF1B8099E
:104230003FE4DDF828A09DF86740FFF72FB8DDE9DF
:10424000071021AA01F0C2FE00287FF45AA8239C7F
:104250000DF1B80926E4DDE9071021AA01F0B6FE48
:1042600000287FF44EA81B9B0E9A239CD31A0DF1B5
:10427000B80949E44FF0060A07E50994CDF80CA007
:10428000CDF818A09DF86740029782460B90FFF783
:1042900005B80AF101030393022135E793464FF075
:1042A000000AFEF707BF17F001020B927FF4E7AD9B
:1042B00023EAE373039356E701333244072BCDE936
:1042C0002232C9F80070C9F804607FF761AEDDE9F9
:1042D000071021AA01F07AFE00287FF412A8DDE978
:1042E00022320DF1B80955E6DDE90E3213440B9A7E
:1042F0000693002A41DD23EAE37303934FF0670836
:1043000031E7DDE916010022002303F0DBFC002881
:104310004BD01B9B0B931C44631B0E93FDE4089A2C
:104320000C2313604FF0FF330593FEF7EFBF0D9B97
:10433000294D002BB8BF2D2427F080030293A8BF7E
:104340009DF86740254BB8BF8DF86740FFF791B8DF
:104350000F9A1344069323EAE37303934FF067081D
:1043600001E70F9B0AEB030808EB0203069323EA1D
:10437000E37303934FF06608F5E60B9B069AC3F1CF
:1043800001031A4422EAE273069203934FF067088E
:10439000E9E60F9B03F1010808EB0A03069323EA01
:1043A000E37303934FF06608DDE6039BC3F101035B
:1043B0001B931C4493E409999BF8013051F804AB1A
:1043C000099193464AEAEA7AFEF771BE02231293F4
:1043D0004EE500BFCDCCCCCC80BD01087CBD010832
:1043E00070B50C46084D03460026204611461C4673
:1043F0002E6016F052FC431C00D070BD2B68002BC1
:10440000FBD0236070BD00BFAC41002016F043BC60
:104410002DE9F04FADB0CDE907301C46029193462F
:1044200018B1436B002B00F003850299B1F90C2001
:104430004B6E950405D442F4005223F400538A8154
:104440004B66980400F12485029BB3F90C201107F8
:1044500040F1D3801B69002B00F0CF8002F01A02DC
:104460000A2A00F0D9800023CDE910330DF170093C
:10447000CDF83C900993CA4605939BF80030002B79
:1044800000F0F4805C4604E014F8013F002B00F0DB
:10449000D280252BF8D1B4EB0B0540F0CF802378E8
:1044A000002B00F0E3804FF000038DF837304FF021
:1044B000FF320023CDE90323617804F1010B984614
:1044C0000BF1010BA1F12003582B00F2DC80DFE897
:1044D00013F0B201DA00DA00AD01DA00DA00DA0036
:1044E000DA00DA00DA007601A701DA00810186013C
:1044F000DA00A20159005900590059005900590029
:10450000590059005900DA00DA00DA00DA00DA005E
:10451000DA00DA00DA00DA00DA006800DA00DA003D
:10452000DA00DA00DA00DA00DA00DA00DA00DA00BB
:104530001902DA00DA00DA00DA00DA00EA01DA0059
:10454000DA001D04DA00DA00DA00DA00DA00DA0054
:10455000DA00DA00DA00DA00DD016A00DA00DA00F7
:10456000DA00D8016A00DA00DA00CB01DA00BD0116
:104570001B047F027A02DA005902DA001904DA0019
:10458000DA004204A1F1300300221BF8011B02EB08
:10459000820203EB4202A1F13003092BF5D9049208
:1045A00090E748F0100818F0200F00F0D780079B24
:1045B000073323F007031A46596852F8083B07925D
:1045C0000A460029C0F2DE8003999DF83750002981
:1045D000C0F2E38053EA020128F0800840F0DD8059
:1045E000039B002B40F0598401934C46002D00F0B2
:1045F000BE81019A01320192B9E1029D08982946D3
:1046000001F082FC002840F04384B5F90C2002F050
:104610001A020A2A7FF427AF029BB3F90E30002B4F
:10462000FFF621AF0299089823465A462DB0BDE8FF
:10463000F04F00F059BCB4EB0B0517D0119B2B4485
:104640001193109B0133072BCAE900B5109305DCC9
:104650000AF1080A059B2B44059320E70299089864
:104660000FAA01F0DFFC28B9CA46F3E7119B002B23
:1046700040F00084029B9B895B0600F10984059849
:104680002DB0BDE8F08F0029F0D000238DF8373031
:1046900001238DF84810019312AC00220392069278
:1046A00018F08407DDE9102105D10498019D451B10
:1046B000002D00F34F829DF8370080B101320DF1DB
:1046C00037000131CAF80000072A4FF00100CDE998
:1046D0001021CAF8040000F377820AF1080A06984C
:1046E00078B101320EA80231CAF80000072A4FF053
:1046F0000200CDE91021CAF8040000F373820AF128
:10470000080A802F00F09B810398C51A002D00F342
:10471000D58101321944072ACDE91021CAF8004099
:10472000CAF8043000F302820AF1080A18F0040FF4
:1047300005D0049B019A9C1A002C00F36182DDE9EC
:10474000042301988242ACBF9B181B1805930029D3
:1047500040F0F78100231093CA468EE6079A18F0BE
:10476000100F52F8043B079207D118F0400F04D005
:1047700043F3C03211461BB223E7DA171146002972
:10478000BFF622AF03995B4262EB42022D2500295E
:104790008DF8375001DB28F080080A2B72F10001F8
:1047A00080F0F3823033DBB28DF86F30039B012B46
:1047B000B8BF012301930DF16F04012316E7079B96
:1047C00053F8042B0492002A80F28882049A0793FB
:1047D000524204929BF8001048F0040870E65846D4
:1047E00010F8011B2A2900F05A83A1F13003092B8C
:1047F00098BF002200F2478310F8011B02EB8202EF
:1048000003EB4202A1F13003092BF5D942EAE2732E
:104810000393834656E69BF8001048F080084FE665
:104820002B239BF800108DF8373049E69BF80010D9
:1048300048F0010844E69DF837309BF80010002B43
:104840007FF43EAE20238DF8373039E618F0200F84
:1048500000F04D82079B059A1B681A60D2175A60B8
:10486000079B0433079308E69BF800106C2903BFED
:104870009BF8011048F020080BF1010B48F01008DC
:104880001EE69BF8001048F0400819E6079B00223E
:104890008DF8372053F8042B079301238DF8482017
:1048A000019312ACF9E648F0100111F0200200F07B
:1048B000DE81079B073323F0070318465A6850F838
:1048C000083B079003980025A8428DF83750C0F2A6
:1048D000A782012553EA020021F0800840F094806D
:1048E0000398002840F09E82002D40F0F38111F0E3
:1048F000010300F0F88130228DF86F2001930DF153
:104900006F0434E048F0100111F0200200F0BE8185
:10491000079B073323F0070318465A6850F8083BF3
:10492000079003980025A8428DF83750D2DA8846C0
:104930004C4603F00701DB0843EA4273D2083031EA
:1049400053EA0205204604F8011DF2D118F0010FC8
:104950006DD030296BD0039A0238302304F8013C23
:10496000A9EB00039A42B8BF1A460446019218F018
:10497000020206923FF494AE019A023201920222A0
:1049800006928DE6079D039B55F8044B00218DF898
:104990003710002C00F05E82002BC0F2DF811A4637
:1049A0002046FEF7EDFA002800F06B82031B9DF80D
:1049B000372023EAE3710191002A00F0528200229D
:1049C0000795039215E69BF8001048F0200877E55C
:1049D000079A52F8043B079247F63002ADF83820A8
:1049E000B24A099248F00208002200218DF83710DF
:1049F000039900290DDB414653EA02004FF00205FE
:104A000021F080083FF46CAF012D00F05482022D9C
:104A10008ED109984C4603F00F011B09415C04F844
:104A2000011D43EA0273120953EA0201F3D1039A0A
:104A3000A9EB04039A42B8BF1A46019297E704987B
:104A4000019D451B002D7FF75FAE102D984E23DD95
:104A500006945046089C10279A4604E0103D102DFD
:104A600000F1080015DD01321031072AC0E90067A6
:104A7000CDE91021F2DD02990FAA204601F0D2FA09
:104A800000287FF4F7AD103D102DDDE910214846D8
:104A9000E9DC069C5346824601322944072ACDE9C7
:104AA0001021CAF80060CAF8045000F3C5810398C9
:104AB000C51A002D0AF1080A7FF72BAE102D7C4E87
:104AC00026DD03945046089CB24610271E4604E09B
:104AD000103D102D00F1080016DD0132744B10312D
:104AE000072AC0E90037CDE91021F1DD02990FAAAC
:104AF000204601F097FA00287FF4BCAD103D102D40
:104B0000DDE910214846E8DC039C334656468246E0
:104B100001322944072ACDE91021CAF80060CAF8F9
:104B2000045000F3C9800AF1080AF2E502990898D6
:104B30000FAA01F077FA00287FF49CAD1199CA46BC
:104B4000F4E5029908980FAA01F06CFA00283FF4E6
:104B500001AE8FE5102D574E28DDCDE90A74504681
:104B60003746089C029E9A4604E0103D102D00F145
:104B7000080016DD013210311023072ACDE910217B
:104B800007604360F1DD0FAA3146204601F04AFA82
:104B900000287FF46FAD103D102DDDE9102148464F
:104BA000E8DC3E460B9C0A9F53468246013229446C
:104BB000072ACDE91021CAF80060CAF8045000F3B2
:104BC00021810AF1080A76E5029908980A930FAA4A
:104BD00001F028FA00287FF44DADDDE910210A9B91
:104BE000CA467CE50299089806930FAA01F01AFAC2
:104BF00000287FF43FADDDE91021069BCA4680E521
:104C0000102C109B2B4E1FDD089FDDF8088010250F
:104C100004E0103C102C0AF1080A15DD01331031B4
:104C2000072BCAE90065CDE91031F2DD0FAA414634
:104C3000384601F0F7F900287FF41CAD103C102C29
:104C4000DDE91031CA46E9DC01332144072BCAE90A
:104C50000064CDE910317FF772AD029908980FAA70
:104C600001F0E0F900287FF405AD119967E5079898
:104C700050F8043B079011F010007FF423AE11F0C0
:104C800040023FF41FAE9BB202461BE6079850F865
:104C9000043B079011F010007FF443AE11F0400286
:104CA0003FF43FAE9BB202463BE600BF98BD010811
:104CB0006CAE01085CAE01080299089803930FAA34
:104CC00001F0B0F900287FF4D5ACDDE91021039B99
:104CD000CA461EE5039B01934C4648E69BF800102C
:104CE0000793FFF7EDBB039A01924C463FE618F09D
:104CF000100F38D118F0400F35D0079B059A1B686C
:104D00001A80ADE54146D0E54146FDE56B4B099380
:104D100018F020022CD0079B073323F00703184616
:104D20005A6850F8083B079018F0010F3FF45DAE49
:104D300053EA02003FF459AE8DF8391030218DF856
:104D4000381000218DF837100399002980F28D80EA
:104D500048F002085DE65A4B0993D9E72046FCF774
:104D60006FFA034623E6079B059A1B681A6077E5EE
:104D7000079850F8043B079018F01000D4D118F0B1
:104D800040021CBF9BB20246CEE74E4ECDF804A0B7
:104D90004C464FF0050E991841F10001A6FB0107A2
:104DA00027F0030000EB9700091A581A9A46944618
:104DB00062F100034FF0CC3202FB00F206FB03224B
:104DC000A0FB063003F001070244A7FB0E074018C2
:104DD000BAF10A0F4FEA530300F130007CF1000CE6
:104DE00043EAC27304F8010D4FEA5202D3D2039A88
:104DF000DDF804A0A9EB04039A42B8BF1A46019259
:104E0000FFF7F4BB029908980A930FAA01F00AF978
:104E100000287FF42FACDDE910210A9BCA464AE442
:104E20008846BAE4012D7FF4F2AD00253023BBE4BF
:104E3000FBF7BAFBFFF7F9BA0299089806930FAA95
:104E400001F0F0F800287FF415ACDDE91021069B95
:104E5000CA4659E4062B28BF06231B4C079501932D
:104E60001BE4CDE9062503921AE428F0800141F005
:104E70000208CEE5029908980FAA01F0D3F8FFF7CF
:104E8000F9BB039B93E5002383460393FFF71ABB0B
:104E90004FF0FF330593FFF7F2BB302384E4079B09
:104EA0009BF8011053F8042B079342EAE272834601
:104EB0000392FFF705BB00256FE400BF84BD010826
:104EC00098BD0108CDCCCCCCACBD010810B4054CCC
:104ED0008446134620685DF8044B0A466146FFF796
:104EE00097BA00BF9006002070B50C468989ADF5D1
:104EF0008D6D21F00201ADF80C101AA900910491FA
:104F00004FF4806102910591616E1991E189ADF8CC
:104F10000E10E1690791616A0991002106916946C5
:104F20000646FFF775FA051E07DB69463046FCF7B3
:104F300001F9002818BF4FF0FF35BDF80C305B06B3
:104F400003D5A38943F04003A38128460DF58D6D59
:104F500070BD00BF000000002DE9F04F03690C692F
:104F6000A34283B0C0F28A80013C01F1140500F134
:104F7000140855F8243058F8242001339A428E46FC
:104F800081464FEA840105EB840708EB840AB2FBF3
:104F9000F3F63AD3CDE900150022AC46404613465D
:104FA0005CF8041B05681FFA81FB06FB0B22090C49
:104FB0004FEA124B06FB01BB92B2A9B2891A1944FF
:104FC0001FFA8BF3C3EB214303EB154389B241EA8C
:104FD0000341674540F8041B4FEA1B424FEA234355
:104FE000DED2DDE9001558F8013073B9AAF1040AE0
:104FF000D04504D307E0D04504F1FF3403D25AF87A
:105000000439002BF7D0C9F810407146484601F02A
:10501000FBFA00282EDB4146002255F8040BD1F89C
:1050200000C01FFA80FE1FFA8CF3A3EB0E0313449B
:10503000020CC2EB234202EB1C429BB243EA024346
:10504000AF4241F8043B4FEA2242E6D258F824200E
:1050500008EB84036AB9043B434504D807E098454C
:1050600004F1FF3403D253F80429002AF7D0C9F819
:1050700010400136304603B0BDE8F08F002003B089
:10508000BDE8F08F2DE9F04F9DB0CDE90A320291D5
:10509000816B269D04908DED060B57EC106B49B18A
:1050A000C26B4A600123934004468B6000F0F0FF1E
:1050B0000023A363B7F10009B4BF012300232B60D1
:1050C000774BBCBF29F00049CDF81C9033EA0903A7
:1050D00000F0AA809DED067B002251EC170B002307
:1050E0008DED007B02F0EEFD804668B10A9A012347
:1050F0001360279B13B1279A6A4B13606A4B059381
:1051000005981DB0BDE8F08F9DED000B04981AAA1C
:105110001BA901F0E7FB5FEA1955824640F09A802F
:10512000DDE91A85454405F23243202B40F38C8398
:10513000C3F1400309FA03F905F2124326FA03F317
:1051400049EA030002F0DCFA0123013DA1F1F87104
:105150001293564B002202F095F94BA3D3E900239A
:1051600002F048FB4AA3D3E9002302F08DF906467A
:1051700028460F4602F0D4FA47A3D3E9002302F0F1
:1051800039FB02460B463046394602F07DF90646A9
:105190000F4602F0DFFD002204460990002330464E
:1051A000394602F099FD002840F02483099CA8EBC1
:1051B000050808F1FF33162C089300F28C813C4B54
:1051C00003EBC403D3E90023DDE9000102F084FD11
:1051D000002873D0631E099300231193089B002BB2
:1051E000C0F27F8100230C93099B002B6CDA099B92
:1051F0000C9A0D93D21A0C925A4200230993029BE7
:105200001092092B6AD8052B40F32383043B0293A9
:105210000025029B023B032B00F23886DFE813F0E7
:1052200070046D04650449040A9AC9F3130942F233
:105230000F7359EA060913601CD1279B002B00F05D
:1052400045861C4B05930833279A059813601DB0BB
:10525000BDE8F08FDDE90012C2F31303084643F006
:105260007F51CDF84880A5F2FF35DDF8688041F424
:1052700040116EE7279B002B40F0F6830E4B059301
:105280003EE700BFAFF3008061436F63A787D23F63
:10529000B3C8608B288AC63FFB799F501344D33F25
:1052A0000000F07FB5BD0108B4BD01080000F83F63
:1052B00090AE0108B8BD0108C4BD0108B8F1000FE7
:1052C00040F3A38411900C90DDE908321344089355
:1052D00000231093029B0D92092B94D900230125E2
:1052E00002930E954FF0FF3B0B93049BCDF84CB00F
:1052F0000021D963049800F0A5FE0590002800F075
:10530000CE85DDE90432BBF10E0F9A6300F21881FD
:10531000002D00F015810D99002940F34684B34B10
:1053200001F00F0203EBC203C805D3E900894FEA7D
:10533000211540F10884AE4BDDE90001D3E90823D3
:1053400002F082FBCDE9140105F00F0503277DB1C2
:10535000A74EE90708D540464946D6E9002302F0A2
:1053600049FA0137804689466D1006F10806F0D1EA
:1053700042464B46DDE9140102F066FB8046894651
:10538000119B43B19B4B00224046494602F0A4FCCE
:10539000002840F00B85384602F0C2F942464B46E1
:1053A00002F028FA944B002202F06EF8A1F150733B
:1053B000CDE914011593BBF1000F00F0A8800D9BFF
:1053C000CDE918B34946404602F0C4FC189A874B11
:1053D00003EBC20313ED027B05468DED167B02F055
:1053E0009FF90B4602464946404602F04BF8059F9E
:1053F0000E9B30357E1CECB2804689463546002B2C
:1054000000F06C84DDE916237C49002002F01CFBCF
:10541000DDE9142302F036F83C7042464B46044660
:105420000D4602F077FC002840F0B884CDF850A07B
:10543000CDF858B00027AB46A246189D2AE00137A8
:10544000AF4280F2FD846E4B50465946002202F076
:10545000D1F96B4B002282468B464046494602F00A
:10546000C9F98946804602F075FC044602F058F9F5
:1054700002460B464046494602F004F8303406F82E
:10548000014B52465B468046894602F025FC0028C7
:1054900040F0D38442464B465649002001F0F2FFCB
:1054A00052465B4602F018FC0028C8D0199BDDF874
:1054B00050A0059A374603F1010802E0974200F038
:1054C0009B843E4617F8013D392BF7D00133DBB200
:1054D0003B7045467DE101231193089B002BBFF6ED
:1054E00081AEC8F101030C93002308937CE6384693
:1054F00002F016F942464B4602F07CF93E4B002280
:1055000001F0C2FFA1F15073CDE9140115933D4B99
:1055100000224046494601F0B5FFDDE91445224628
:105520002B4606460F4602F0F5FB002840F0738438
:1055300030463946224605F1004302F0CDFB28BB38
:105540001B9B002BC0F290800D9A0E2A00F38C80DA
:10555000264B0D9A03EBC20393ED007B0B9B002BB4
:105560008DED027B19DABBF1000F16DC0ED1254B55
:105570000022DDE9020102F03DF902460B46DDE9B9
:10558000000102F0B3FB002800F045840023059ED3
:1055900000931F460B9BDD432DE2059B5D1CDDE95F
:1055A0000278DDE900013A46434602F04DFA02F086
:1055B000D1FB064602F0B4F83A46434602F01AF927
:1055C00002460B46DDE9000101F05CFF059A06F199
:1055D0003003BBF1010F2F46137000F0218301252A
:1055E000CDF800A0A846DDE9029A2BE090AE0108B4
:1055F00080AF01080000F03F00001C400000E03FC9
:1056000000002440000014404A46534620462946E4
:1056100002F01AFA02F09EFB064602F081F84A46B2
:10562000534602F0E7F808F101080B460246294606
:10563000204601F027FF06F13003D84507F8013B6B
:1056400000F0EC82844B002202F0D4F80022002308
:1056500004460D4602F036FB0028D5D00D9DDDF83E
:1056600000A001353E46B4E00E9A002A40F0D880F2
:105670000023109E0C9D0E931F4665B1089A002AC8
:1056800009DD0C99AA421346A8BF2B46C91AED1A88
:10569000D31A0C910893109B53B10E9B13B1002E9B
:1056A00040F0F7825146109A049800F0DBFE8246E3
:1056B0000498012100F0F2FD099B0090002B40F0BE
:1056C000BE81029B012B40F3D4810120089A104433
:1056D00010F01F0000F09B80C0F12003042B40F36A
:1056E000E3810C9BC0F11C00034402440C9305446D
:1056F00008920C9B002B05DD514604981A4600F0D9
:105700000BFF8246089B002B05DD009904981A4682
:1057100000F002FF0090119B002B40F07581BBF15F
:10572000000F40F34C810E9B002B40F0A4800D9D98
:105730000135DDF81480009CDDF81090012607E0AB
:10574000514600230A22484600F0ACFC013682464E
:1057500021465046FFF700FCB34500F1300008F841
:10576000010BEDDCBBF1000F059BCCBF5E460126B3
:10577000814603EB060B002451460122049800F0F9
:10578000CBFE0099824600F03FFF002840F3EE81F7
:10579000059A02E0934500F003825E460BF1FF3B61
:1057A00016F8013C392BF5D001338BF80030DDF8C9
:1057B00010800099404600F06BFC57B12CB1BC4200
:1057C00003D02146404600F063FC0498394600F0BF
:1057D0005FFC0498514600F05BFC002333700A9B89
:1057E0001D60279B002B3FF48BAC05981E601DB0FD
:1057F000BDE8F08F204601F093FF32463B4602F0B1
:1058000061FA00287FF4D2AC631E0993CEE41C2316
:105810000C9A1A440C92089A1A441D44089268E79C
:10582000029A012A40F3AD81109B0BF1FF36B3427F
:10583000C0F26981BBF1000FA3EB060680F2EF8294
:105840000C9BA3EB0B056CE1C3F1200306FA03F0FC
:1058500078E40125DDE400BF000024403946002340
:1058600004980A2200F01EFC139B002B074640F30D
:10587000FF820D969B46002D05DD394604982A4689
:1058800000F04AFE0746099B002B40F0E681B8462F
:10589000059E731E03EB0B04069B03F00103CDE989
:1058A0000B43049C00995046FFF756FB394683464C
:1058B000504600F0A9FE009905464246204600F0F9
:1058C000C5FEC3680BF130090146ABBB09905046D9
:1058D00000F09AFE09990890204600F0D9FB089A3A
:1058E000002A54D1029B1BB90C9B002B00F0AE8206
:1058F000002D3FDB0B9BB3469E420BF8019B00F053
:10590000C381514600230A22204600F0CBFB4745C5
:10591000824639464FF000034FF00A02204630D04D
:1059200000F0C0FB4146074600230A22204600F053
:10593000B9FB5E468046B5E7049800F0A9FB002D50
:1059400006DB069B03F00102029B1D432A4329D17B
:1059500051460122049800F0DFFD0099824600F0D4
:1059600053FE002840F3F680B9F1390F00F0498268
:105970000BF131090D9D06F8019B3C460135474668
:1059800015E700F08FFB5E46074680468AE7002D4C
:10599000C0F29382029B1D430C9B1D4300F08D823D
:1059A000002AA7DDB9F1390F00F02B820D9D09F116
:1059B00001033C4606F8013B01354746F7E6029BEA
:1059C000022B7FF7B0AEBBF1000F40F025810099AC
:1059D00004985B46052200F065FB014600905046A6
:1059E00000F012FE002840F31781059E0D9D312323
:1059F00006F8013B01350099049800F049FB013598
:105A0000002F7FF4E2AEE4E60099504600F0FCFD82
:105A10000028BFF684AE5146002304980D9C0A224C
:105A200000F040FB0E9B661E8246002B7FF416AFF3
:105A3000139B002B40F311820D9D9B4679E6014696
:105A40001A46049800F00EFD029B0090012B6EDDBB
:105A500000230993009A136902EB8303186900F08D
:105A6000CBFBC0F1200031E6984B05930333FFF7E1
:105A7000EBBB069B002B7FF428AEDDE90612C2F3D8
:105A80001303002B7FF421AE914B134033B10C9BD9
:105A900001330C93089B013308930123099A09935E
:105AA000002A3FF412AED5E73FF423AEC0F13C0329
:105AB000AEE601230E930B9B0D9A134403F1010BE9
:105AC0005E46012E1393B8BF0126172E40F3F981CD
:105AD000012204235B0003F11400B042114602F1DD
:105AE0000102F7D9049BD96304E401230E930B9EB2
