:020000040800f2
:1000000000000220751c0208c51c0208c52d02084c
:10001000c51c0208c51c0208c51c0208000000001f
:1000200000000000000000000000000011d20208e3
:10003000c51c020800000000b1d2020815d3020856
:10004000c51c0208c51c0208c51c0208c51c020804
:10005000c51c0208c51c0208c51c0208c51c0208f4
:10006000c51c0208c51c0208c51c0208c51c0208e4
:10007000c51c0208c51c0208c51c0208c51c0208d4
:10008000c51c0208c51c0208c51c0208c51c0208c4
:10009000292c0208c51c0208c51c0208c51c020840
:1000a000c51c0208c51c0208c51c0208c51c0208a4
:1000b000c51c0208c51c0208c51c0208c51c020894
:1000c000c51c0208c51c0208c51c0208c51c020884
:1000d000c51c0208c51c0208c51c0208c51c020874
:1000e000c51c0208c51c0208c51c0208c51c020864
:1000f000952c0208c51c0208c51c0208c51c020874
:1001000000000000c51c0208c51c0208c51c02082e
:10011000c51c0208c51c0208c51c0208c51c020833
:10012000c92c0208c51c0208b52c0208c51c02080f
:10013000c51c02080000000000000000c51c0208e9
:10014000c51c0208c51c0208c51c0208c51c020803
:10015000c51c0208c51c0208c51c0208b122020801
:10016000c51c0208c51c0208c51c0208c51c0208e3
:10017000c51c0208c51c0208c51c020800000000be
:10018000c51c0208c51c0208000000000000000099
:1001900081f0004102e000bf83f0004330b54fea38
:1001a00041044fea430594ea050f08bf90ea020fa5
:1001b0001fbf54ea000c55ea020c7fea645c7fea38
:1001c000655c00f0e2804fea5454d4eb5555b8bf5b
:1001d0006d420cdd2c4480ea020281ea030382eacc
:1001e000000083ea010180ea020281ea0303362d5e
:1001f00088bf30bd11f0004f4fea01314ff4801c31
:100200004cea113102d0404261eb410113f0004f42
:100210004fea03334cea133302d0524263eb4303f9
:1002200094ea050f00f0a780a4f10104d5f1200e97
:100230000ddb02fa0efc22fa05f2801841f10001f2
:1002400003fa0ef2801843fa05f359410ee0a5f1c6
:1002500020050ef1200e012a03fa0efc28bf4cf0f7
:10026000020c43fa05f3c01851ebe37101f00045ad
:1002700007d54ff0000edcf1000c7eeb00006eebba
:100280000101b1f5801f1bd3b1f5001f0cd3490844
:100290005fea30004fea3c0c04f101044fea44529b
:1002a00012f5800f80f09a80bcf1004f08bf5fea22
:1002b000500c50f1000041eb045141ea050130bd02
:1002c0005fea4c0c404141eb0101013c28bfb1f514
:1002d000801fe9d291f0000f04bf01460020b1fa5f
:1002e00081f308bf2033a3f10b03b3f120020cda32
:1002f0000c3208dd02f1140cc2f10c0201fa0cf010
:1003000021fa02f10ce002f11402d8bfc2f1200c74
:1003100001fa02f120fa0cfcdcbf41ea0c0190402a
:10032000e41aa2bf01eb0451294330bd6fea040473
:100330001f3c1cda0c340edc04f11404c4f120025e
:1003400020fa04f001fa02f340ea030021fa04f370
:1003500045ea030130bdc4f10c04c4f1200220fac7
:1003600002f001fa04f340ea0300294630bd21fa05
:1003700004f0294630bd94f0000f83f4801306bfcb
:1003800081f480110134013d4ee77fea645c18bfbf
:100390007fea655c29d094ea050f08bf90ea020f56
:1003a00005d054ea000c04bf1946104630bd91ea4e
:1003b000030f1ebf0021002030bd5fea545c05d151
:1003c0004000494128bf41f0004130bd14f5800490
:1003d0003cbf01f5801130bd01f0004545f0fe4104
:1003e00041f470014ff0000030bd7fea645c1abf39
:1003f000194610467fea655c1cbf0b46024650ea70
:10040000013406bf52ea033591ea030f41f400219b
:1004100030bd00bf90f0000f04bf0021704730b521
:100420004ff4806404f132044ff000054ff00001f6
:1004300050e700bf90f0000f04bf0021704730b5b7
:100440004ff4806404f1320410f0004548bf40428c
:100450004ff000013ee700bf42004feae2014feae1
:1004600031014fea02701fbf12f07f4393f07f4fbc
:1004700081f06051704732f07f4208bf704793f0bf
:100480007f4f04bf41f40021704730b54ff46074d2
:1004900001f0004521f000411ce700bf50ea0102d5
:1004a00008bf704730b54ff000050ae050ea01027e
:1004b00008bf704730b511f0004502d5404261ebee
:1004c00041014ff4806404f132045fea915c3ff42f
:1004d000d8ae4ff003025feadc0c18bf03325feacc
:1004e000dc0c18bf033202ebdc02c2f1200300fa7d
:1004f00003fc20fa02f001fa03fe40ea0e0021faa2
:1005000002f11444bde600bf70b54ff0ff0c4cf48f
:10051000e06c1cea11541dbf1cea135594ea0c0f41
:1005200095ea0c0f00f0def82c4481ea030621ea7c
:100530004c5123ea4c5350ea013518bf52ea0335b7
:1005400041f4801143f4801338d0a0fb02ce4ff069
:100550000005e1fb02e506f00042e0fb03e54ff099
:100560000006e1fb03569cf0000f18bf4ef0010e91
:10057000a4f1ff04b6f5007f64f5407404d25fea8d
:100580004e0e6d4146eb060642eac62141ea555140
:100590004feac52040ea5e504feace2eb4f1fd0c82
:1005a00088bfbcf5e06f1ed8bef1004f08bf5fea00
:1005b000500e50f1000041eb045170bd06f00046b2
:1005c00046ea010140ea020081ea0301b4eb5c045f
:1005d000c2bfd4eb0c0541ea045170bd41f4801157
:1005e0004ff0000e013c00f3ab8014f1360fdebf7c
:1005f000002001f0004170bdc4f10004203c35da58
:100600000c341bdc04f11404c4f1200500fa05f3da
:1006100020fa04f001fa05f240ea020001f000427b
:1006200021f0004110ebd37021fa04f642eb0601f1
:100630005eea430e08bf20ead37070bdc4f10c041b
:10064000c4f1200500fa04f320fa05f001fa04f2df
:1006500040ea020001f0004110ebd37041f10001cb
:100660005eea430e08bf20ead37070bdc4f12005d6
:1006700000fa05f24eea020e20fa04f301fa05f23e
:1006800043ea020321fa04f001f0004121fa04f2e6
:1006900020ea020000ebd3705eea430e08bf20eab6
:1006a000d37070bd94f0000f0fd101f000464000f0
:1006b00041eb010111f4801f08bf013cf7d041ea72
:1006c000060195f0000f18bf704703f00046520076
:1006d00043eb030313f4801f08bf013df7d043ea47
:1006e0000603704794ea0c0f0cea135518bf95eafd
:1006f0000c0f0cd050ea410618bf52ea4306d1d184
:1007000081ea030101f000414ff0000070bd50eaa2
:10071000410606bf1046194652ea430619d094ea2c
:100720000c0f02d150ea013613d195ea0c0f05d116
:1007300052ea03361cbf104619460ad181ea03016a
:1007400001f0004141f0fe4141f470014ff0000022
:1007500070bd41f0fe4141f4780170bd70b54ff0bd
:10076000ff0c4cf4e06c1cea11541dbf1cea13553d
:1007700094ea0c0f95ea0c0f00f0a7f8a4eb05041f
:1007800081ea030e52ea03354fea013100f0888016
:100790004fea03334ff0805545ea131343ea1263df
:1007a0004fea022245ea111545ea10654fea002694
:1007b0000ef000419d4208bf964244f1fd0404f54d
:1007c000407402d25b084fea3202b61a65eb0305a9
:1007d0005b084fea32024ff480104ff4002cb6eb66
:1007e000020e75eb030e22bfb61a754640ea0c00e6
:1007f0005b084fea3202b6eb020e75eb030e22bf26
:10080000b61a754640ea5c005b084fea3202b6eb66
:10081000020e75eb030e22bfb61a754640ea9c0025
:100820005b084fea3202b6eb020e75eb030e22bff5
:10083000b61a754640eadc0055ea060e18d04feab3
:10084000051545ea16754fea06164feac30343ea53
:1008500052734feac2025fea1c1cc0d111f4801f20
:100860000bd141ea00014ff000004ff0004cb6e719
:1008700011f4801f04bf01430020b4f1fd0c88bfb8
:10088000bcf5e06f3ff6afaeb5eb030c04bfb6ebc3
:10089000020c5fea500c50f1000041eb045170bdb6
:1008a0000ef0004e4eea113114eb5c04c2bfd4ebe3
:1008b0000c0541ea045170bd41f480114ff0000e67
:1008c000013c90e645ea060e8de60cea135594eae3
:1008d0000c0f08bf95ea0c0f3ff43baf94ea0c0fe6
:1008e0000ad150ea01347ff434af95ea0c0f7ff45b
:1008f00025af104619462ce795ea0c0f06d152eaaf
:1009000003353ff4fdae1046194622e750ea410692
:1009100018bf52ea43067ff4c5ae50ea41047ff4a3
:100920000daf52ea43057ff4ebae12e74ff0ff3c08
:1009300006e000bf4ff0010c02e000bf4ff0010cd9
:100940004df804cd4fea410c7fea6c5c4fea430c52
:1009500018bf7fea6c5c1bd001b050ea410c0cbfa1
:1009600052ea430c91ea030f02bf90ea020f002003
:10097000704710f1000f91ea030f58bf994208bf6a
:1009800090422cbfd8176feae37040f00100704727
:100990004fea410c7fea6c5c02d150ea013c07d17e
:1009a0004fea430c7fea6c5cd6d152ea033cd3d0c9
:1009b0005df8040b704700bf8446104662468c46c3
:1009c0001946634600e000bf01b5fff7b7ff0028f6
:1009d00048bf10f1000f01bd4df808edfff7f4ff1f
:1009e0000cbf012000205df808fb00bf4df808edaa
:1009f000fff7eaff34bf012000205df808fb00bfcd
:100a00004df808edfff7e0ff94bf012000205df8ee
:100a100008fb00bf4df808edfff7ceff94bf0120a3
:100a200000205df808fb00bf4df808edfff7c4ff9c
:100a300034bf012000205df808fb00bf4fea4102ef
:100a4000b2f1e04324bfb3f5001cdcf1fe5c0dd92c
:100a500001f0004c4feac0024cea5070b2f1004f76
:100a600040eb830008bf20f00100704711f0804f79
:100a700021d113f13872bcbf01f00040704741f43e
:100a800080114fea5252c2f11802c2f1200c10fa42
:100a90000cf320fa02f018bf40f001004feac12326
:100aa0004fead32303fa0cfc40ea0c0023fa02f3ca
:100ab0004fea4303cce77fea625307d150ea0133a0
:100ac0001ebf4ff0fe4040f44000704701f0004070
:100ad00040f0fe4040f40000704700bf034613f8aa
:100ae000012b002afbd1181a0138704700000000c2
:100af00001f0ff01102a2bdb10f0070f08d010f8cf
:100b0000013b013a8b422dd010f0070f42b3f6d1d2
:100b1000f0b441ea012141ea014122f007047ff0eb
:100b200000070023f0e80256083c85ea010586ea42
:100b3000010685fa47f5a3fa87f586fa47f6a5fa7e
:100b400087f68eb9eed1f0bc01f0ff0102f007028a
:100b500032b110f8013b013a83ea010313b1f8d135
:100b60000020704701387047002d06bf3546033816
:100b7000073815f0010f07d1013015f4807f02bf4f
:100b8000013015f4c03f0130f0bc0138704700bfa0
:100b90000348044b834202d0034b03b1184770470c
:100ba000dc310020dc310020000000000548064b4d
:100bb0001b1ad90f01eba301491002d0034b03b15b
:100bc00018477047dc310020dc31002000000000b5
:100bd00010b5064c237843b9fff7daff044b13b185
:100be0000448aff300800123237010bddc310020e6
:100bf0000000000090ed020808b5054b1bb1054947
:100c00000548aff30080bde80840fff7cfbf00bf45
:100c100000000000e031002090ed020870b50d4d9d
:100c20000d4c641ba4100026a64209d10b4d0c4ca0
:100c30000df0aef8641ba4100026a64205d170bdcd
:100c400055f8043b98470136eee755f8043b9847c2
:100c50000136f2e72cf502082cf502082cf5020803
:100c600030f5020802440346934200d1704703f86e
:100c7000011bf9e7dff834d0002103e00c4b5b588f
:100c8000435004310b480c4b42189a42f6d30b4a9e
:100c900002e0002342f8043b094b9a42f9d303f0e7
:100ca000b7fdfff7bbff02f067f9704700000220b5
:100cb00034f5020800000020dc310020dc31002087
:100cc000742e012001f0fafa00b583b000230193dd
:100cd000322200928022094909480af04dfb094b53
:100ce000094a92ed181ad3ed1f0a93ed220a07481c
:100cf00008f0c6ff03b05df804fb00bf08ef020870
:100d0000e953020890420020d43f0020203e0020fa
:100d100010b50a4bb3f92611094c012289b22046bd
:100d200008f0d0ff226b074b1a65d4ed0a6a93ede9
:100d3000227ac6ee877ac3ed157a10bd583e0020a0
:100d4000203e0020d43f002008b5124bd3ed1f0aef
:100d500093ed220a104808f0abff104b1b7913f0fb
:100d6000010f09d00b4b1b78042b11d10b4bb3f99e
:100d70002621094bda840be0074b9b8e07ee903a55
:100d8000f8ee677a064bc3ed097a0122da821a83fc
:100d900008bd00bf90420020203e0020583e0020a9
:100da000d43f002010b500f057ffc043c0b27c4aca
:100db00010707c4bdb6a5b087b490b60137813f087
:100dc000100f0bd1137813f0200f40f08b801378a5
:100dd00013f0400f00f08880012100e001217248eb
:100de00009f00cfc002840f081804ff400416f486e
:100df00004f0fdf928b16a4b1b7813f0010f00f0e5
:100e000097800a200af0b2fc00f026ffc043c0b26f
:100e1000634b18701b78db096cd1614b1b7813f0a6
:100e2000080f6cd15e4b1b7813f0040f6cd15c4b38
:100e30001b7813f0020f6cd15d4a13780133dbb2db
:100e400013701378dbb20a2b68d85a4b1b7913f056
:100e5000040f68d1574b1b7a03f00702564b1b78df
:100e6000002b7dd0072a6bd0544b00221a8001f052
:100e70003bfd504cb4f8643100ee103a2622b8ee37
:100e8000400a4f494f4808f03bf9bdeec00a10ee4a
:100e9000103a19b2a4f812115a29d4bf0021012125
:100ea000494809f0abfb002871d1424cb4f86831d5
:100eb00000ee103a0b22b8ee400a4449444808f0cc
:100ec0001ff9bdeec00a10ee103a19b2a4f81011c5
:100ed0006e29d4bf002101213b4809f08ffb002877
:100ee00059d110bd01217ae7002178e7314801f09e
:100ef000efff7ae701212f4801f041ffa5e702212a
:100f00002c4801f03cffa0e703212a4801f037fffd
:100f10009be70221274801f032ff96e70021254890
:100f200001f02dff91e704212a4804f0a3f991e78d
:100f30001f4b00221a700421264804f054f989e757
:100f40001e4a13889bb201339bb2138013889bb255
:100f5000642b8cd10023184a1370184a138086e73b
:100f600016490b889bb201339bb20b800b889bb256
:100f700044f620618b4201d0072a05d00e4b012296
:100f80001a700e4b00221a8001f0aefc71e7204669
:100f900001f09eff89e7204601f0a9ffa1e700bf0d
:100fa000fc3100200000014000320020001002400f
:100fb000f8310020583e002074080020fe31002047
:100fc00084070020ec060020780800204808002054
:100fd0001c08002000040240f0b58bb040f616401b
:100fe00004f0b8f91c4c0621204603f0c1ff402351
:100ff00007931a4f0397002604964ff480630893d3
:10100000174b01930125029505964ff44033099340
:1010100001aa0621204603f0e4ff0522062120460e
:1010200004f057f80621204604f038f829462046f7
:1010300003f09eff0796039701aa2946204603f076
:10104000d0ff05222946204604f043f829462046d1
:1010500004f024f80bb0f0bd006402400832002018
:101060000414014010b550b10a4c4ff40041204621
:1010700004f0b9f80821204604f0b5f810bd054c7d
:101080000821204604f0b1f84ff40041204604f056
:10109000acf8f3e7000c024038b50d4640f60240cc
:1010a00004f058f940f6024004f054f941f20510fa
:1010b00004f050f9384c40220821204604f09ef8f4
:1010c00080220821204604f099f8402301220221c1
:1010d000204604f037f8402302220021204604f085
:1010e0005af8802301220221204604f02bf88023a5
:1010f00002220021204604f04ef8a4f57444204654
:1011000004f07cfd2946204604f0e6fd002120463f
:1011100004f048fe0121204604f04cfe0421204644
:1011200004f05bfe0821204604f051fe204604f046
:1011300049fe1a4d082300220121284604f002f836
:10114000082302220021284604f025f84ff400432a
:1011500000220121284603f0f5ff4ff4004302224c
:101160000021284604f017f800220a21472004f045
:101170008df8204604f037fe0121204604f03afea7
:10118000fff72aff0021204604f044fe0020fff76d
:1011900069ff012038bd00bf00080240000c02407a
:1011a00070b50c46012813d02f4d42f20401284699
:1011b00004f061fe0021284604f02cfe01212b489a
:1011c00003f07eff012c23d0294b00221a7070bd42
:1011d000254e42f20b21304604f034fe42f2040167
:1011e000304604f03cfe214d4ff480620121284638
:1011f00003f03fff4021304604f00cfe2022012185
:10120000284603f071ff0121284603f050ffd9e77b
:10121000174b01221a7002e0164b1b689847144bbb
:101220001b78012bf8d00120fff71cff0e4e40f277
:101230000631304604f013fe0f4d0c4c2a6806218f
:10124000204603f016ff8021304604f0e9fd2022fd
:101250000621204603f048ff0621204603f027ff21
:1012600000232b60b3e700bf00140140006402407c
:101270000c3600206c62002008360020034a1368f8
:10128000591c1160024ad0540120704708360020d2
:1012900008320020044a1368591c1160034ad35cc9
:1012a00003700120704700bf08360020083200207c
:1012b00038b542f20b212f4804f0b8fd01280ad0be
:1012c00006212c4804f0b2fd01283cd02a4b802294
:1012d000c3f8882138bd274d0021284604f09afd27
:1012e000264c0121204603f0ebfe42f20b2128465a
:1012f00004f0a8fd0121204603f0c1fec0f5806482
:1013000002e01f4b1b6898471e4b1b68a342f8db8b
:101310001c4b00221a601c4b1b689847174c4ff45b
:1013200080620121204603f0a4fe4021114804f010
:1013300071fd20220121204603f0d6fe0121204626
:1013400003f0b5febce70020fff78cfe094c40f22d
:101350000631204604f08ffd0621204604f072fd80
:101360000021204604f05cfd0621044803f0a8fe9d
:10137000ace700bf0014014000e100e0006402405f
:1013800068620020083600207062002008b5012144
:10139000014804f08ffa08bd0000014008b5044878
:1013a000002141638163c16304f084fa08bd00bf7a
:1013b000000001408268034b5a6342689a630268e6
:1013c000da63704700000140f8b507460c4672b674
:1013d0000cf0f6fc4ff480700cf0e6fc80200cf072
:1013e000e3fc40200cf0e0fc10200cf0ddfc0220bf
:1013f0000cf0dafc01200cf0d7fc58200cf0e4fcd7
:101400004ff480700cf0d0fc80200cf0cdfc40201c
:101410000cf0cafc10200cf0c7fc02200cf0c4fc3d
:1014200001200cf0c1fc660814f0010f00d0013659
:101430000024114d19e04ff480700cf0b5fc8020b1
:101440000cf0b2fc40200cf0affc10200cf0acfc17
:1014500002200cf0a9fc01200cf0a6fc57f8241087
:1014600028460cf0a9fc04350134b442e3d30cf057
:101470009ffc62b60120f8bd00000e0808b54a00c6
:1014800001490cf013f808bd00000e084ff47a5122
:10149000b1fbf0f1b0f57a5f02d8b0f5fa6f00d881
:1014a000704708b50139012289b2024804f0e6f913
:1014b00008bd00bf0000014010b5174c02230022f8
:1014c0000321204603f03efe042300220321204690
:1014d00003f038fe082300220321204603f032fee9
:1014e00004f50064022300220321204603f02afeb3
:1014f000042300220321204603f024fe10230022af
:101500000321204603f01efe202300220321204653
:1015100003f018fe10bd00bf0000024038b54ff4c4
:10152000406003f017ff41f20c1003f013ff284c4a
:10153000202300220221204603f004fe2023022261
:101540000021204603f027fe20220521204603f03b
:1015500055fe402300220221204603f0f3fd4023e4
:1015600002220021204603f016fe402205212046db
:1015700003f044fe102300220121204603f0e2fd87
:10158000102302220021204603f005fe114d2846bb
:1015900003f090ff104c204603f0deff0023636051
:1015a0004ff482722260a360032363612023a3614e
:1015b0004ff40073e36080232361284603f0f6ffb5
:1015c0002146284603f0d1ff284603f0e5ff38bd49
:1015d00000000240003001401036002070b541f29a
:1015e000011003f0b7fe4ff0807003f0dbfe144ce7
:1015f000204604f031f8134900260e8060234b800a
:1016000040238b8041f282438b6001250d7320467d
:1016100004f0e2f83146204604f0dafa20212046b0
:1016200004f0cefa204604f024f92946204604f0be
:10163000ddfa324629462c2003f028fe70bd00bf9b
:10164000000401409036002070b582b04ff08070e9
:1016500003f0a8fe314e304603f0feff304900246f
:101660000c8060234b8040238b8041f282438b604f
:1016700001250d73304604f0aff82a4b93e80300c0
:1016800002ab03e90300284b1d8004225a809c8092
:10169000dc801c815c8120e002ab03eb440333f867
:1016a000086c1e4d204a3146284604f00ff960228e
:1016b0003146284604f0fef908223146284604f057
:1016c0002ffa41f282423146284604f01bfa0022ea
:1016d0003146284604f04cfa0134022cdcdd134973
:1016e0004ff400630b804ff480634b804ff4e17341
:1016f0008b804ff40053cb8000240c814c818c8173
:10170000064d284604f0c1f82146284604f0d2f8d8
:101710004ff4fa50fff7bafe02b070bd000001406e
:1017200090360020d8ed0208a03600208036002038
:1017300070b596b05422274901a80bf0b7fe0024db
:101740001ae004eb4402930058336b4453f8545ca2
:1017500053f8506c334600220221284603f0f2fc75
:10176000334602220021284603f015fd32460121ae
:10177000284603f043fd0134062ce2dd4ff400431c
:1017800000221146144803f0ddfc8023002211469c
:10179000124803f0d7fc124c0423002201212046fa
:1017a00003f0d0fc042302220021204603f0f3fcc6
:1017b000022300220121204603f0c4fc02231a4622
:1017c0000021204603f0e7fc0221204603f00dfd36
:1017d00016b070bde0ed02080010024000000240ab
:1017e0000004024010b54ff4003003f071f81b4cb8
:1017f0000021204603f0bdf8002003f06df900221f
:101800000221204603f074f801224ff48071204633
:1018100003f06ef80021204603f097f80222012120
:10182000204603f0b8f800230e221946204603f0a4
:10183000d3f800230f220121204603f0cdf84ff00a
:1018400060620121204603f01af901221146204668
:1018500003f02af9204603f099f810bd002001405a
:1018600010b54ff4003003f033f8244c002120462b
:1018700003f07ff8002003f02ff900220221204618
:1018800003f036f801224ff48071204603f030f85f
:101890000021204603f059f805220121204603f0db
:1018a0007af800230c221946204603f095f800230d
:1018b0000b220121204603f08ff800230122022190
:1018c000204603f089f8002302220321204603f07a
:1018d00083f8002303220421204603f07df84ff013
:1018e00060620121204603f0caf801221146204619
:1018f00003f0daf8204603f049f810bd002101405a
:1019000070b5194d0021284603f032fb174a184bd9
:10191000136001235360174b93600024d4604ff48d
:101920000063136194610226d6614ff400331362a1
:101930002146284603f055fb22462146284603f05f
:10194000c8fb2146284603f0a0fb2146284603f0a9
:10195000aefb10222146284603f0e2fb2246314628
:10196000382003f093fc70bd006402402c36002048
:101970004c200140ae3f002070b5194c022120469a
:1019800003f0f6fa174a184b136001265660174bfe
:1019900093600025d5604ff40063136195610523c2
:1019a000d3614ff4003313620221204603f019fb88
:1019b00032460221204603f08cfb0221204603f030
:1019c00064fb0221204603f072fb10220221204614
:1019d00003f0a6fb2a4602213a2003f057fc70bd13
:1019e00000640240503600204c210140b83f0020e6
:1019f00070b588b041f2190003f0acfc05a90020d5
:101a000003f092f86946012003f08ef8142003f0e9
:101a100095fc444d0221284603f0a5fa284603f020
:101a20006bf800248df8184001238df819308df8db
:101a30001a408df81b308df81c408df81d308df844
:101a400014408df815400d238df8163005238df8c0
:101a500017300823adf81e3005a9284603f0a9f871
:101a6000adf80a40304b1a8813029bb22f490988ff
:101a700053fa81f3002a51d1224609b142f0ff0204
:101a80000024adf80c400125adf80e50590badf80f
:101a90000010db009bb243f00403adf80230c2f348
:101aa0004f33adf80430d20092b242f00402adf8e8
:101ab0000620adf808408df81050684603f006f98e
:101ac0001b4e022322461946304603f03bfb3346a9
:101ad00002222146304603f05efb022209213046f5
:101ae00003f08cfb2b4622460221304603f02afbf2
:101af000334602222146304603f04dfb2a46092197
:101b0000304603f07bfb0221064803f028fa224608
:101b10000f21142003f0bafb08b070bd4ff47f42d0
:101b2000abe700bf006400408c0800208e08002056
:101b3000000c024010b5374b374a9a6072b64ff42a
:101b4000406003f007fc40f6014003f003fc40f660
:101b5000024003f0fffb40f6034003f0fbfb40f6be
:101b6000044003f0f7fb41f2081003f0f3fb41f2ed
:101b7000091003f0effb4ff4885003f0ebfb41f248
:101b8000011003f0e7fb40f6164003f0e3fb234ca3
:101b90004ff4704300220121204603f0d3fa4ff4a2
:101ba000704302220021204603f0f5fafff7b6fc4d
:101bb000fff714fdfff748fdfff7bafdfff712fe30
:101bc000fff79efefff74cfefff7d6fefff774fc13
:101bd000134803f049fe134803f046fea4f56c4495
:101be000204602f0bdfe204602f0cbfe04f58074d4
:101bf000204602f0b5fe204602f0c3fe00f07cfe57
:101c00004ff4407003f038fb0020fff7f1fe62b69e
:101c100010bd00bf00ed00e000100208000c024003
:101c2000000001400004014000b587b001aa002176
:101c3000074803f043f901a8aff3008001a802f0c0
:101c40005ff9044a13680133136007b05df804fbc1
:101c5000006400407836002010b50c4c102120465e
:101c600003f0c3fa1021204603f0bdfaaa21084868
:101c700003f0b7fc8021064803f0e7fc0128f9d007
:101c8000034803f0b0fcc0b210bd00bf000002402a
:101c90000030014008b50121044803f0abff044bbc
:101ca0004ff48072c3f8282c08bd00bf0004014027
:101cb0000000024008b520220221024803f014fa75
:101cc00008bd00bf0064024008b54ff480413448ad
:101cd00003f089fa20220021324803f005fa324b42
:101ce0004ff48072c3f8182c304800f0d9fd304b07
:101cf00018701b78dbb2062b48d02d4b1b78dbb25b
:101d0000082b0bd8dfe803f0050a230a290a0a0a80
:101d10002f00284a137a43f004031372264b93f8da
:101d20006430012b25d04ff400511d4803f05bfabd
:101d30001e4b1a881f4ba3f826219fed200a01f0a5
:101d4000fff94ff48041164803f04ffa08bd194ad5
:101d5000137a43f001031372e0e7164a137a43f053
:101d600002031372dae7134a137a43f0080313727b
:101d7000d4e7134a1368591c1160032bd3d90d48bb
:101d800001f0c4f80e4b04221a60cce70c4b002281
:101d90001a604ff40051024803f027fac8e700bf69
:101da000000c024000640240000002407436002033
:101db00076360020583e0020d43f00206f12833832
:101dc0007c360020bff34f8f0449ca6802f4e062fa
:101dd000034b1343cb60bff34f8ffee700ed00e0f2
:101de0000400fa0508b54ff48051024803f042faa6
:101df00008bd00bf000c02407047704703290cd893
:101e0000836801eb4102c1f34001890001eb42010b
:101e100020228a401343836070470439c9b2c368e3
:101e200001eb4102c1f34001890001eb4201202294
:101e30008a401343c360704738b572b6124c002114
:101e4000204603f0edff114d0621284603f038f936
:101e50000021204603f0daff04f5a634d4f8283434
:101e600023f00103c4f828344ff48073c4f82c34f1
:101e700001212846fff7c2ffd4f8283443f00103bc
:101e8000c4f8283438bd00bf00140140006402408b
:101e900038b5244b1a68244b1b689a4204db234b49
:101ea0000822c3f8282c0be01e4a1368591c116045
:101eb0001f4ad056c0b234e01e4b4af6aa221a601e
:101ec0001d4bd3f8883413f4006ff5d01b4cd4f8b5
:101ed000283423f00103c4f82834174ad2f8883490
:101ee00023f40063c2f888340e4b00221a60d4f841
:101ef0002c24c2f580720c490a601a68511c1960c2
:101f00000b4b9d564ff48073c4f82c3401210c48c0
:101f1000fff774ffd4f8283443f00103c4f82834e1
:101f2000e8b238bdac360020b036002000000240d8
:101f300008320020003000400010014000600240e4
:101f400000640240844600221ae00f4bd3f80034ac
:101f500013f0400ff9d00d4b0820c3f8180c1cf8f3
:101f60000200a3f57043c3f80404074bd3f8003410
:101f700013f0400ff9d0054b0820c3f8280c0132ac
:101f80008a42e2d3704700bf0010014000000240c7
:101f90002de9f0410546884617464ff480700bf056
:101fa00003ff80200bf000ff40200bf0fdfe10200f
:101fb0000bf0fafe02200bf0f7fe01200bf0f4fe0e
:101fc000002407e06e1c18f8041028460bf000fff0
:101fd00001343546bc42f5d3bde8f08108b50bf0bd
:101fe000effe4ff480700bf0dffe80200bf0dcfe84
:101ff00040200bf0d9fe10200bf0d6fe02200bf093
:10200000d3fe01200bf0d0fe40200bf0ddfe382087
:102010000bf0dafe012008bdbff34f8f0449ca68f8
:1020200002f4e062034b1343cb60bff34f8ffee734
:1020300000ed00e00400fa0510b5074c20684ff4ed
:10204000807100f1006000f5c220fff77bff23687c
:1020500003f58073236010bdbc36002000b583b04b
:10206000124b019303f50f2303f601530093fff77f
:10207000b5ff0023012100e00133b3f5c02f08d2e2
:1020800003f1006202f5c2221278ff2af4d0002187
:10209000f2e731b1032101a8fff754ff03b05df867
:1020a00004fb03216846fff74dfff7e7454f4b0060
:1020b00010b582b041238df804304ff47a73013ba0
:1020c000fdd1002404e0fff7e3fe0d4b1855013469
:1020d000ff2cf8d90b4c20684ff48072084900f1ae
:1020e000006000f5c220fff753ff236803f58073fb
:1020f0002360012101a8fff725ff02b010bd00bf3a
:10210000c0360020b836002030b583b058238df893
:1021100004300024032c05d8fff7bafe194b1855dc
:102120000134f7e70024032c05d8fff7b1fe164b66
:1021300018550134f7e74ff47a73013bfdd1134c86
:10214000042211492046fff723ff0e4d04222946a1
:102150000f48fff71dff236921682a689a4201d0c2
:1021600003b030bd084a12688a42f9d1b3f1ff3f8b
:10217000f6d0b1f1ff3ff3d0012101a8fff7e2fe55
:10218000eee700bfb4360020b83600200000060895
:102190001000060800487047800800200c20704797
:1021a00070b582b0fff7f6ff0646fff7f7ff05466a
:1021b000002403e029463046fff7c4fefff768fe1f
:1021c00041381728fad801a353f820f04932020801
:1021d0008f320208bd310208bd3102082d320208db
:1021e000bd310208bd310208bd310208b531020817
:1021f000bd310208bd310208bd3102089d3202081e
:10220000bd310208bd31020839320208bd31020871
:1022100073320208bd310208bd310208bd31020827
:102220003f320208bd310208a7320208002cc5d097
:10223000fff714ff0024c1e7fff73affbee7002cc9
:10224000bcd0fff7f9feb9e7184b1b6823b1002398
:10225000174a1360154a1360154b00221a60412378
:102260008df8073001210df10700fff76bfe012407
:10227000a4e752238df8073001210df10700fff785
:1022800061fec823013bfdd1fff7c6fe96e7094b6f
:10229000009304216846fff755fe8fe709210648a1
:1022a000fff750fe8ae7fff72fff87e7b8360020d9
:1022b000bc36002000100208acee020808b5fff79b
:1022c000bbfdfff76dff000038b505464ff4004138
:1022d000164802f08aff164c2a460521204602f0d5
:1022e000c8fe2a460021204602f0c3fe2022052116
:1022f000204602f0f9fe20220021204602f0f4fee2
:102300000c4d0121284603f056f90021284603f020
:1023100052f90021204602f0cafe0521204602f0b3
:10232000c6fe0021284603f066f938bd00000240d1
:1023300000600240003c004010b5134c00212046d4
:1023400003f06ef94ff40041104802f04cff0121f8
:10235000204603f03bf90021204603f037f904f54d
:1023600009340021204602f0abfe0521204602f090
:10237000a7fe20220521204602f0b6fe20220021e1
:10238000204602f0b1fe10bd003c004000000240bb
:10239000f8b540f6014002f0ddff4ff4406002f076
:1023a000d9ff41f20f0002f0d5ff544c0823002260
:1023b0000221204602f0c6fe082302220021204608
:1023c00002f0e9fe08220621204602f017ff102342
:1023d00000220221204602f0b5fe10230222002135
:1023e000204602f0d8fe10220621204602f006ff09
:1023f000202300220221204602f0a4fe20230222f4
:102400000021204602f0c7fe20220621204602f0cd
:10241000f5fea4f580644ff400430022012120461c
:1024200002f090fe4ff4004302220021204602f009
:10243000b2fe334e304603f03df8324c204603f0f6
:102440008bf8002565604ff482732360a560032339
:1024500063612023a361e56025612146304603f0d6
:1024600084f8304603f09df8304603f095f8264c8a
:10247000204602f0aafd40f6154002f06bff06f57b
:1024800009360521304602f073fd4023a3611f4b3e
:10249000a360e5601e4f27604ff4803323622561ff
:1024a0004ff40073e36122460521304602f099fda6
:1024b0002a460521304602f00cfe0521304602f086
:1024c000edfd2946304602f053fd2760114ba36015
:1024d000a5614ff44033236222462946304602f07c
:1024e00080fd2a460521304602f0f3fd294630469c
:1024f00002f0d4fdfff720fff8bd00bf000402404a
:10250000003c0040c03b0020dc3b0020c0390020e4
:102510000c3c0040c037002038b50c461546074b30
:10252000984204d00a46014618460af0bfff6019d7
:10253000fff7cafe0248204438bd00bfc039002062
:10254000c037002000b587b003461b4a07ca0df10b
:10255000180c0ce90700022b16d0032b18d09df89d
:102560000c308df8083000238df809300122114617
:1025700002a8fff7d1ff8021104803f066f858b198
:10258000012009f0f3f8f6e735238df80c30e6e783
:1025900015238df80c30e2e7fff7cefe00238df80f
:1025a0000730012206490df107000af07fff9df870
:1025b000070007b05df804fb34ee0208003c004061
:1025c000c137002008b5fff7e3fe08bd10b586b09f
:1025d0000446154b93e8070006ab03e907004b23bd
:1025e0008df8043000238df805308df806308df815
:1025f00007308df808301022052101a8fff78cff65
:1026000002e0012009f0b2f88021084803f01df82b
:102610000028f6d1fff790fe1022054920460af067
:1026200045ff06b010bd00bf40ee0208003c004070
:10263000c537002010b584b00446104b93e807005e
:1026400004ab03e907009f238df80030032201212a
:102650006846fff761ff02e0012009f087f880215a
:10266000074802f0f2ff0028f6d1fff765fe0322cb
:10267000044920460af01aff04b010bd4cee0208cf
:10268000003c0040c137002000b585b00e4b93e8f8
:10269000070004ab03e9070006238df80030002291
:1026a00001216846fff738ff02e0012009f05ef8db
:1026b0008021064802f0c9ff0028f6d1fff73cfe52
:1026c00005b05df804fb00bf58ee0208003c004076
:1026d00000b585b00e4b93e8070004ab03e9070093
:1026e00004238df80030002201216846fff714ff13
:1026f00002e0012009f03af88021064802f0a5ff27
:102700000028f6d1fff718fe05b05df804fb00bf06
:1027100064ee0208003c004008b50120fff712fffc
:1027200000f0010008bd000070b584b005460e46fb
:10273000fff7f2ff0028fbd1fff7a6ff174b93e846
:10274000070004ab03e90700154c02232370c5f30f
:1027500007436370c5f30723a370e5704ff48072dd
:102760003146201d0af0a2fe00224ff4827120465d
:10277000fff7d2fe02e0012008f0f8ff80210948af
:1027800002f063ff0028f6d1fff7d6fdfff7c4ff84
:102790000028fbd1fff79cff04b070bd70ee02086b
:1027a000c0390020003c004010b584b003460c4600
:1027b000144a07ca0df1100c0ce907001248032255
:1027c0000270c3f307424270c3f307228270c370e2
:1027d0004ff480720421fff79ffe02e0012008f011
:1027e000c5ff8021094802f030ff0028f6d1fff72d
:1027f000a3fd4ff48072064920460af057fe04b04c
:1028000010bd00bf7cee0208c0390020003c004033
:10281000c437002010b584b00446fff77dff0028c0
:10282000fbd1fff731ff144b93e8070004ab03e93a
:102830000700124820230370c4f307434370c4f316
:1028400007238370c47000220421fff765fe02e0b5
:10285000012008f08bff8021094802f0f6fe0028d5
:10286000f6d1fff769fdfff757ff0028fbd1fff70f
:102870002fff04b010bd00bf88ee0208c039002051
:10288000003c004080ea102080ea101080ea9000ae
:1028900080ea500080f0010000f001007047000065
:1028a00070b506460f4b4ff40072c3f8182cc3f8ee
:1028b0001824c3f81824c3f82824a3f5e833d3f860
:1028c0000c48a5b20022c3f80c282846fff7daff0f
:1028d00004f0060425f00f05358008b9204670bdc8
:1028e0000824fbe70000024008b54021014802f03f
:1028f0007afc08bd000402402de9f84340f601408f
:1029000002f028fd41f20e0002f024fd584c4ff475
:10291000806300220221204602f014fc4ff4806301
:1029200002220021204602f036fc4ff4806205218d
:10293000204602f063fc4ff480430022022120462f
:1029400002f000fc4ff4804302220021204602f0f6
:1029500022fc4ff480420521204602f04ffc4ff448
:10296000007300220121204602f0ecfb4ff40073bb
:1029700002220021204602f00efc3e4d4ff48073ef
:1029800000221146284602f0ddfbdff8f0804046c9
:1029900002f090fd384e304602f0defd4ff48273b7
:1029a00033604ff40063b360022777611023b36193
:1029b0004ff40079c6f80c903146404602f0d5fd40
:1029c000404602f0e9fd404602f010fe00220321dd
:1029d000242002f05bfc40f6034002f0bbfc4ff405
:1029e000806300220121284602f0acfb4ff4806393
:1029f0003a460021284602f0cefb40f6034002f0a2
:102a0000a9fc4b4600220121284602f09bfb4b46c5
:102a10003a460021284602f0befb40f6014002f093
:102a200099fc402300220121204602f08bfb402329
:102a30003a460021204602f0aefb40f6034002f089
:102a400089fc4ff4807300220121284602f07afbb2
:102a50004ff480733a460021284602f09cfbfff7b2
:102a600043ff4ff48061284602f0bdfbbde8f883c8
:102a700000040240000c0240003e002000380040ec
:102a80007047000000b585b0444b019303f1780214
:102a9000029203f190020392b3f848310c2b0dd847
:102aa0001ab2002a49d0013b0b2b46d8dfe803f0cd
:102ab0002b34453d454545554566456940f6f1226f
:102ac000934261d047f27772934207d1344b1b791e
:102ad00013f0010f31d1fff7f1fb2ee040f2175256
:102ae00093422ad12e4b1b7913f0010f25d1bff34e
:102af0004f8f2c49ca6802f4e0622b4b1343cb6022
:102b0000bff34f8ffee7264b1b7913f0020f14d053
:102b1000234800f0cff810e0214b1b7913f0010f90
:102b20000bd01f4800f098f807e01d4b1b7913f0fd
:102b3000040f09d11a4800f0d9f8194b0022a3f864
:102b4000542105b05df804fb01a801f005fa144b0f
:102b50009a7960f3c3029a71ece7114b1b7913f079
:102b6000010fead10e4b0022a3f8542100f03cfae9
:102b70000028e2d10a4800f0a0f9dee700f05cfa94
:102b8000dbe700f091fad8e70548c179c1f30011fd
:102b900081f0010100f0a5f8cfe700bf643e0020fe
:102ba000583e002000ed00e00400fa0500f5ab738c
:102bb000c361104b836100f5b072c0f89420c0f877
:102bc000903000f5b172c0f8ac20c0f8a83000f524
:102bd000ac734363084b0363002303870123037033
:102be000064bc0f86c31064bc0f87031054bc0f88d
:102bf0007431704796438b3ed1221b3e9d230208c1
:102c00008d230208b523020808b5037813b1d0f864
:102c10007031984708bd08b5037813b1d0f86c310e
:102c2000984708bd037863b100b585b000230193d0
:102c300002930393d0f8743101a8984705b05df86a
:102c400004fb7047037833b100234360836003794a
:102c500043f010030371704708b5037803b908bd4a
:102c600003796ff304130371dbb243f002030371c2
:102c7000dbb26ff382030371dbb26ff30003037106
:102c8000fff7c9ffebe708b5037803b908bd03797f
:102c90006ff304130371dbb26ff341030371dbb213
:102ca00043f004030371dbb26ff300030371fff71a
:102cb000b2ffebe708b5037803b908bd03796ff3fa
:102cc00004130371dbb26ff341030371dbb26ff3e3
:102cd00082030371dbb243f001030371fff794ff3a
:102ce000ebe7c37961f30413c3717047037913f001
:102cf000010f0dd1c379c3f300130022426082603b
:102d0000027942f002020271c27963f30412c271c5
:102d100083796ff341038371037a6ff300030372c6
:102d2000dbb26ff382030372dbb26ff34103037212
:102d3000dbb26ff3c3030372014b00221a807047aa
:102d40001c3e002003782bb1bdeec00a10ee103af5
:102d5000a0f82431704703780bb180ed480a704722
:102d600003780bb180ed430a704703780bb180ed17
:102d7000450a704703780bb180ed460a704738b5b5
:102d8000037803b938bd04460d46fff77cff022dda
:102d900015d0032d18d0012d0cd0637943f010030a
:102da0006371dbb243f020036371dbb243f0400395
:102db0006371e7e7637943f010036371e2e76379d6
:102dc00043f020036371dde7637943f040036371ef
:102dd000d8e738b5037803b938bd04460d46fff788
:102de00052ff022d15d0032d18d0012d0cd02379c0
:102df00043f080032371637943f001036371dbb215
:102e000043f002036371e7e7237943f08003237102
:102e1000e2e7637943f001036371dde7637943f02f
:102e200002036371d8e700000378bbb110b5044614
:102e3000437943f004034371c37913f0100f09d1b0
:102e4000074a1388591c1180b3f57a7f03d80023f1
:102e5000c4f8283110bdfff716fff8e7704700bf30
:102e60001c3e00200378b3b110b50446037943f04b
:102e700040030371c37913f0100f08d1064a138879
:102e8000591c1180052b03d80023c4f8283110bd2c
:102e9000fff7f9fef8e770471c3e002008b50378fd
:102ea0003bb1037943f020030371c37913f0100f92
:102eb00000d008bdfff7e7fefbe708b5037803b9cc
:102ec00008bd837943f004038371fff7dcfef7e765
:102ed00008b503783bb1837943f001038371c3796b
:102ee00013f0100f00d008bdfff7cdfefbe708b5cb
:102ef00003783bb1437943f080034371c37913f006
:102f0000100f00d008bdfff7befefbe708b5037841
:102f10003bb1837943f002038371c37913f0100f3f
:102f200000d008bdfff7affefbe708b5037843b15b
:102f3000c37943f00403c371b0f84c319bb2012b49
:102f400000d008bdfff79ffefbe708b5037843b14b
:102f5000c37943f00103c371b0f848319bb2012b30
:102f600000d008bdfff78ffefbe703781bb1837924
:102f700061f304138371704710b582b0fef7dafd78
:102f8000002401940323009323468022044905482a
:102f900008f0f2f908f092fa204602b010bd00bf26
:102fa000b8ee02081950020870b5e2200af06efa75
:102fb00006460024254600e00134702c0ad8a0b251
:102fc00003f0a4fc8379002bf6d1038826f8153092
:102fd0000135f1e76900304603f06af904463046ee
:102fe0000af05cfa204670bd70b5fff7ddff0446bd
:102ff000e2200af04bfae8b10646048000240125dd
:1030000000e00134702c0bd8a0b203f07ffc837970
:10301000002bf6d103681b8826f815300135f0e740
:1030200029463046fef7d0f9044630460af036fa13
:10303000204670bd0024fbe770b5fff7b5ff0446de
:10304000e2200af023fa054648b30121fef716fafa
:103050002b88a34223d10024264600e00134702ca3
:1030600007d8a0b203f052fc8379002bf6d10136c9
:10307000f4e7711c2846fef701fa0024012600e05f
:103080000134702c0bd8a0b203f040fc8379002be4
:10309000f6d1036835f816201a800136f0e7284685
:1030a0000af0fcf970bd000010b5002408e0d0ed76
:1030b000077a0368fceee77a17ee902a1a8001344b
:1030c000702c3bd8a0b203f021fc8379002bf6d101
:1030d0000379042bf3d801a252f823f0af40020881
:1030e000f140020803410208194102082f41020879
:1030f000d0ed077a0368fdeee77a17ee902a1a8082
:10310000dde74379002bdad1d0ed077a0368fceed6
:10311000e77ac3ed007ad2e74379002bcfd1d0ed27
:10312000077a0368fdeee77ac3ed007ac7e74379d3
:10313000002bc4d10368c2691a60c0e710bd00bf8c
:10314000a24b1b7803b9704710b52ded028bb0ee82
:10315000408a9e4ce3691b88228c9b1a1bb26384b5
:1031600007ee903af8eee77a94ed067a67ee877a02
:10317000c4ed037a17ee900afdf76ef941ec100bdf
:103180000af0fcfd51ec100bfdf758fc07ee900a1d
:10319000606194ed047a77eec77af2ee048a68ee05
:1031a000288a67eea87a37ee277a84ed047ad4f875
:1031b00094301b88b4f898209b1a1bb2a4f89a305c
:1031c00007ee903af8eee77a94ed247a67ee877a84
:1031d000c4ed217a17ee900afdf73ef941ec100b91
:1031e0000af0ccfd51ec100bfdf728fc07ee900a1d
:1031f000c4f88c0094ed227a77eec77a67eea87a4d
:1032000037ee277a84ed227ad4f8ac301b88b4f8f4
:10321000b0209b1a1bb2a4f8b23007ee903af8ee39
:10322000e77a94ed2a7a67ee877ac4ed277a17ee6b
:10323000900afdf711f941ec100b0af09ffd51ecdb
:10324000100bfdf7fbfb07ee900ac4f8a40094ed09
:10325000287a77eec77a67eea87a37ee277a84ed78
:10326000287a636b1b88228f9b1a1bb2638707ee39
:10327000903af8eee77a94ed0c7a67ee877ac4ed2f
:10328000097a17ee900afdf7e7f841ec100b0af007
:1032900075fd51ec100bfdf7d1fb07ee900ae062d3
:1032a00094ed0a7a77eec77a67eea87a37ee277a36
:1032b00084ed0a7afdf72cfd237913f0010f7ed0ff
:1032c000434bd3ed207af5ee407af1ee10fa01d1be
:1032d000dfed407a3e48c0ed207a3c4bd3ed036ae7
:1032e00086eea77a80ed007ad3ed216a86eea77a82
:1032f00080ed017ad3ed276a86eea77a80ed027a17
:103300005b6ac360d0f8b4329847002840d12f4c94
:10331000d4f874313048984794ed057adfed2f7a70
:10332000b4eee77af1ee10fa36dc284b93ed237a0f
:10333000dfed2a7ab4eee77af1ee10fa31dc234bb6
:1033400093ed297adfed257ab4eee77af1ee10fa03
:103350002cdc1f4b93ed407a214bd3ed007a37eef6
:10336000677adfed1e6a28ee268a27ee087a77ee66
:10337000877ac3ed007a17ee900afdf76df84ff0eb
:103380003332184bfdf750fba8b9bdec028b10bdd2
:103390000e48fff761fcbae701212046fff719fd4f
:1033a000c3e702211846fff714fdc8e703211846ba
:1033b000fff70ffdcde70548fff754fde5e70348ac
:1033c000fff730fc024804f029fcdee7583e0020fd
:1033d000d43f00205f708930804000200000c84347
:1033e000204300203333f33f30b58db02ce0394b10
:1033f000002283f8a820384ad37943f04003d371e0
:1034000001a805f0ddf9354b019a1a6500225a65cd
:10341000029a9a65039ada65049a1a66069a9a6677
:10342000089a1a67059ada66079a5a670a9a9a6793
:10343000099ada670b9ada630be062882a82fdf751
:1034400083fc642008f092f9224b93f8a830002bfb
:10345000cdd1224c1f4dd4ed1f0a94ed1e0a2846f3
:1034600006f092fcd4ed1d0a94ed1c0a284606f0e5
:1034700093fcd4ed1b0a94ed1a0a284606f094fc3e
:10348000d4ed210a94ed200a284606f095fc04f1bb
:103490001801284606f0a1fc04f10801284606f0b0
:1034a000a2fcd4ed192a94ed182ad4ed171a94ed44
:1034b000161ad4ed150a94ed140a284606f057fca6
:1034c0002178284606f095fc034b1b7913f0010f79
:1034d000b3d0b4e7d43f0020583e002090420020f3
:1034e000f8b50446d0ed4e7a9fed387af4eec77aff
:1034f000f1ee10fa01ddf0ee477ab6ee007af4ee66
:10350000c77af1ee10fa01d5f0ee477ab0ee677a9d
:10351000beeec87a17ee100a2d4a82fb0032c3179e
:10352000c3eb62132b4a1360237913f0010f18d0f9
:1035300091ed017ad4ed4f7ab4eee77af1ee10fa1c
:1035400013dcd1ed1f6af4eee67af1ee10fa24d422
:10355000d1ed256af4eee67af1ee10fa1fd50125d9
:1035600004e0104607f058f82be0012577eea77a23
:10357000b4eee77af1ee10fa13dc91ed1f7ab4eeb7
:10358000e77af1ee10fa1ddc91ed257ab4eee77ad8
:10359000f1ee10fa18dd012304e00125e6e700252d
:1035a000e4e701231e460b4f2946384607f026f86c
:1035b0002946384607f022f800b916b12046fff731
:1035c00033fcf8bd0123ede70023ebe70000964351
:1035d0007fe0077e4043002010b52ded028b82b0c6
:1035e00004468b6901939fed148adfed140ab0ee57
:1035f000480a01a806f004ff80f00101c9b2204684
:10360000fff7b3fcdded017af4ee487af1ee10fa43
:103610000ad09fed0a7af4ee477af1ee10fa07d05d
:1036200002b0bdec028b10bd2046fff737fcf7e778
:103630002046fff717fcf3e7000096420000e14345
:10364000f8b52ded028b9be06d4c6e4d6e4b00215d
:1036500008469fed6e2ad4ed4d1a6d4e96ed001a78
:10366000dfed6c0a95ed230a06f028fc85ed130ac0
:10367000d5ed407a684b93ed000a77eec07a9fed66
:10368000678a67ee887a30ee270a83ed000a2046c3
:10369000fff766fb624bd3ed0a6adfed627a66eef6
:1036a000a76a9b8e07ee103ab8eec77a9fed5e6a66
:1036b00027ee067ac6ee877ad5ed2f6a66eea86aff
:1036c00086ee867a594b93ed000a37ee407a27ee64
:1036d000087a30ee070a83ed000a554e96ed007a1f
:1036e00077eec77a67ee887a37ee277a86ed007a2a
:1036f0002046fff730fb96ed000a2046fff722fb3d
:10370000d5ed377a4b4b93ed000a77eec07a30ee69
:10371000270a83ed000a2046fff727fbd5ed367a0e
:10372000454b93ed000a77eec07a30ee270a83ed21
:10373000000a2046fff71efb95f89121a37962f35a
:103740008613a37195f89221dbb262f34513a3713e
:1037500095f89321dbb262f3c713a371e37913f0f9
:10376000100f39d0274b93f89c31002b40d04ff4e9
:103770007a50fdf78bfefdf715fb012007f0f6fff1
:10378000204fd7ed228a1e4ed6f82801fcf764fea2
:1037900019a3d3e90023fcf7b7fe04460d4618ee43
:1037a000900afcf759fe02460b4620462946fcf7d4
:1037b000d5fffdf743f907ee900a97ed1f7a67ee04
:1037c000877a134bc3ed007a327912f001027ff44d
:1037d0003baf0021196037e70c34a4f10c052146fa
:1037e0002846fff77dfe21462846fff7f5feb9e79c
:1037f0004ff4fa50bde700bfd5eb7bf3e9ceba3ffb
:10380000583e0020d43f0020384300206f12833af6
:103810003c4300200000000024430020cdcccc3de0
:10382000203e002000007042db0fc9402c430020e6
:1038300030430020344300202843002008b507e02f
:10384000fef7dafa0020fff71df9642007f08eff7b
:10385000fef7c8fa034b1b7913f0040ff0d1fef703
:10386000ccfaefe7583e002038b52ded028b01234e
:10387000134a1373134a1373134a1373134a1373bc
:10388000134a1373134a1373134a1373e8e00b4676
:1038900006211970d3ed017ab7ee007a77ee877ab8
:1038a000c3ed017a0121d9756fe1012b03d00b4bd8
:1038b0001f22da731be0094b0722da7317e000bfff
:1038c0007c310020bc3100209c310020ac31002034
:1038d0008c310020cc31002054310020902d01206b
:1038e00012f0040f00f0b981c74b0222da73c64b05
:1038f00003225a74c54b4ff087421a6093ed027a47
:10390000f7ee007a77ee277ac3ed027af2ee0e7abe
:10391000b4eee77af1ee10fa01dd00229a60bc4abb
:10392000d2ed2f7a9fedbb7a67ee877ab74bc3ed66
:10393000067ad2ed287a67ee877a92ed248ac7ee6e
:10394000886ac3ed046a00221a62b34ad2ed0a7a89
:1039500067ee877adfedb16a87eea67a83ed0a7aa1
:10396000af4b93ed027af7ee007a77ee277ac3ed4c
:10397000027af2ee0e7ab4eee77af1ee10fa01dd99
:1039800000229a60a24bd3ed226a68ee265a93ed8c
:103990001f7adfeda47a67ee277a85eea76aa04d3d
:1039a00085ed086ac6ee877a17ee900afcf754fd9b
:1039b00093a3d3e90023fcf7a7fdfdf73ff8a86127
:1039c00085ed048a4ff087432b60974b93ed027a85
:1039d000f7ee007a77ee277ac3ed027af2ee0e7aee
:1039e000b4eee77af1ee10fa01dd00229a608e4b18
:1039f0008e4a9a61864ad2f880201a61864db5f9be
:103a0000103107ee903af8eee77a894ac2ed007a73
:103a1000884b936013619361b5f9122107ee902ae8
:103a2000f8eee77a844ac2ed007a936013619361fd
:103a3000204608f0b7fd814b186808f0cbfd804a9e
:103a400013780133dbb213709bb2b5f84e2192b2fa
:103a5000934202d92846fff778fa012007f086fe44
:103a6000764b1c6801341c60764b00225a600022a1
:103a70001a705a77684b1a7912f0400f07d0714bc1
:103a800002211970012159774ff07e5159606d4b19
:103a90000021d97712f0200f0ad001211970d977af
:103aa000d3ed017ab7ee007a77ee877ac3ed017a2b
:103ab000644b00215976584b1b7a13f00f0f0cd032
:103ac000604b0521197001215976d3ed017ab7eecb
:103ad000007a77ee877ac3ed017a5a4b0021d974c8
:103ae0004d4bdb7913f0010f0cd0564b09211970a7
:103af000d3ed017ab7ee007a77ee877ac3ed017adb
:103b00000121d9744f4b00215974434b5b7913f059
:103b1000040f0cd04b4903200870d1ed017ab7eea9
:103b2000007a77ee877ac1ed017a01204874454921
:103b30000020c87613f0700f0bd004200870d1ed70
:103b4000017ab7ee007a77ee877ac1ed017a01202b
:103b5000c8763c49002048752f49897911f0010f3a
:103b60000cd0384907200870d1ed017ab7ee007a01
:103b700077ee877ac1ed017a01204875314900203e
:103b8000c87513f0800f7ff482ae2e4b002159745c
:103b9000214b9b8803f4607353b12a4b0a2119709f
:103ba000d3ed017ab7ee007a77ee877ac3ed017a2a
:103bb000194b1b79c3f3400022494872c3f300003c
:103bc0004873c3f38003cb720f4b93ed027af7ee89
:103bd000007a77ee277ac3ed027af2ee0e7ab4ee2f
:103be000e77af1ee10fa01dd0021996012f0010f81
:103bf0003ff476ae144b5b8828e000bfaff3008043
:103c0000fb2bed663d192340902d01200c2e012049
:103c1000d43f00200000c842583e00200000c343ab
:103c2000c42d012000007a44ec2d01200000c34384
:103c3000a42d012000007f433c2e01204c43002096
:103c400048430020142d012090420020002b7ff4d7
:103c50002cae074b0822da7349e612f0020f03d0ac
:103c6000034b0222da7342e6014b0022da733ee68e
:103c7000902d01200000000000b585b097e0804b3a
:103c80001b7913f0010f30d17e4b9b7f63b17d4bcd
:103c900093ed087adfed7c7ac7ee276a7b4b5b8871
:103ca000002b4dd0012b6bd0764b1b7d002b77d09a
:103cb000744b1b7f002b73d0724b93ed047adfedb6
:103cc000727ac7ee276a93ed067a87ee276a5b7be6
:103cd0000f2b00f2c980dfe803f0c35b99c7c7c7a9
:103ce000c7c7c7c7c7c7c7c7c7c36548fef7b4ffbd
:103cf000cae7634b1b7913f0020fc5d0634b012257
:103d00005a80c82007f032fd5d48fef7d3ffbbe7bd
:103d10005b4b1b7913f0020fb6d05c4b00225a802c
:103d2000c82007f023fd5648fef7c4fface7544b0c
:103d30001b7913f0040fa7d05148fef7d7ffa3e774
:103d4000534bdb7b082bafd1524b93ed226a93eda3
:103d50001f7ac6ee077a67eea67ab3ee0e7a67eea2
:103d6000877a17ee900afcf777fb43a3d3e9002389
:103d7000fcf7f4fcfcf762fe414bc3f8280193e723
:103d8000434bdb7b072b8fd1424bc3ed176a8be78d
:103d9000404bc3ed256a83ed266a3d4b01225a73e1
:103da0003d4b00221a723d4b1b7a012b60d04ff025
:103db000ff3201a93a4b186806f08bff0128f6d1b3
:103dc000384b1a6802a9019808f092fb324b1b7a13
:103dd000012be8d12b4b9b7f002b3ff455af294b98
:103de0005b7f023b062b3ff64faf01a252f823f058
:103df0007f4c0208894c0208894c02082f4d0208aa
:103e0000894c0208f34c0208114d02081c4bb3f90f
:103e10002431002b12dbf7ee007af5eec07af1eeda
:103e200010fa11ddf5eec06af1ee10fa09db194b5c
:103e3000c3ed236a164b02225a73b1e7ffee007af4
:103e4000ebe7f1ee666af2e7b5eec06af1ee10fa62
:103e500003db104b83ed236aece7b1ee466af8e72b
:103e60000b4b00225a739be7094b0f225a7397e7bb
:103e70000a4b00221a729ae7182d4454fb2109407c
:103e8000583e0020382d01200000c84290420020fa
:103e9000902d0120d43f002064310020703100209b
:103ea000544300204c43002010b582b000220c2166
:103eb0000a2006f0c2fd0d4b186000240194012376
:103ec0000093234680220a490a4807f055fa0194d4
:103ed00003230093234680220749084807f04cfa41
:103ee000204607f07bfa02b010bd00bf544300200b
:103ef000c0ee0208794c0208ccee020869480208bc
:103f000010b584b0044607f071fd022801d004b05a
:103f100010bd0b4b1b687bb163680193082204f151
:103f20000b010deb020009f0c1fa0023054a01a9bb
:103f30000348006806f066fe034b00221a70e6e7ad
:103f400054430020504300204843002008b500207f
:103f500007f044fa08bd000030b585b005460024de
:103f60000194029403943ce055f8232011690988d8
:103f700007ee101ab8ee477a04a901eb830151ed60
:103f8000037a37ee677adfed216a27ee267a77ee3d
:103f9000877a41ed037afdeee77a17ee901a918267
:103fa0000133022be0d9b4f57a7f12dd2b68b3f927
:103fb0001630022b0bdc6b68b3f91630022b12dcc7
:103fc000ab68b3f91630022b0fdd002300e00023ad
:103fd000cbb9013441f288339c4208dc012007f060
:103fe000c5fb0023dde70023f2e70123f0e7bff381
:103ff0004f8f0749ca6802f4e062064b1343cb6057
:10400000bff34f8ffee7002005b030bdcdcccc3dd7
:1040100000ed00e00400fa05f0b587b0514d2846e8
:10402000fef7c4fd2846fef70dfe4f4900240c7034
:104030004e4bdb6a4b604e4bcb624e4b0b634e4b91
:104040004b644e4b8b644e4b0b644e4bcb644e4bd0
:104050000b6500234b654d4b8b654d4bcb654d4b35
:104060000b664ff081434b664b4b8b624b4b0b63a4
:104070004ff07c538b61cb610b624b628b60cb60ea
:104080000b614b61464e304605f0b6fefff70cf86b
:10409000fef7d2ffa5f85441304603f0bffdfcf710
:1040a00013fe4ff47a7007f061fbab7943f008031d
:1040b000ab7105f10c03039305f18403049305f13f
:1040c0009c03059303a8fff747ffab7960f3c30395
:1040d000ab71019403260096234680223149324871
:1040e00007f04af9314f01940423009323468022bc
:1040f00039462f4807f040f9019400962346802264
:1041000039462c4807f038f94ff47a7007f02efb47
:104110002846fef7ebfd01940223009323468022fc
:104120002549264807f028f90194012300932346e6
:1041300080222349234807f01ff901940096234663
:1041400080222149214807f017f90194009623465f
:1041500080221f491f4807f00ff9204607f03ef95b
:1041600007b0f0bd583e0020904200200000014002
:10417000555505430080eb430060ea466666663f9e
:104180000000c343cdcc4c3d0bd7233d63bebc38b0
:1041900027a08939e29e4c3e6f12833863149d43f9
:1041a000d43f0020d8ee02083d480208dcee0208a9
:1041b00041460208e9430208e0ee0208fd55020804
:1041c000e8ee020861560208f0ee0208a94e020865
:1041d000f8ee02084d4f020800b586464ff0000c7d
:1041e0004ff6ff700de040080133072b07dc10f09d
:1041f000010ff8d04af2010282ea5000f4e70cf114
:10420000010c8c4504da1ef80c3058400023ece712
:104210005df804fb08b54ff47a7007f0a7fa4ff485
:104220007a710c4b186806f003fe0128f7d10a4b8f
:1042300018680a4c2146fef7b7fa094b1c600023a8
:104240001a4619460348006806f018fc642007f077
:104250008dfae4e78043002070430020003c0020fa
:10426000c443002008b54ff47a7007f07ffafae7ec
:1042700010b592b0044601238df847300df1040cbf
:104280008646bee80f00ace80f00bee80f00ace8c1
:104290000f00bee80f00ace80f009ee80f008ce8ae
:1042a0000f000023adf84030402101a8fff794ff34
:1042b000a38f834202d000238df847309df847003a
:1042c00012b010bd38b536e03cbb3e4b1b6813b98d
:1042d0003d4b1b68ebb13d4b1868a0f580703c4925
:1042e000fef762fa3b4b1868c030fff7c1ff90b190
:1042f0000324384b1b68384d03eb84140fcc0fc5d7
:104300000fcc0fc50fcc0fc594e80f0085e80f0048
:1043100038bd3248e3e7fff7a5ff013ce9e7fff7c7
:10432000a1ff284b1a6801321a601b68102b3bd082
:10433000012007f01bfa4ff47a71294b186806f038
:1043400077fd0128f7d1204b1a681e4b1b6803eb41
:1043500002131b021d4a136010681d4c2146fef714
:1043600023fa00231a4619461d48006806f086fb0a
:10437000184b1c6000241b4b1c80032cd1d8154b00
:10438000186800eb8410828f4ff6ff739a429bd01f
:10439000fff76eff0028c2d0124a13889bb2013388
:1043a0009bb213800134e8e7064b00221a60064beb
:1043b0001a6801321a601b68642bb9d9024b0022bb
:1043c0001a60b5e7744300207c4300206c43002052
:1043d000003c0020c843002084430020003f06002a
:1043e0008043002078430020f0b585b003220021ef
:1043f000012006f022fb734b186000231a46194671
:1044000006f03cfb4ff48072ff216f48fcf72afc5a
:10441000012007f0abf9fef7d5f8fef735f96b4848
:10442000fef7d4f86a48fef705f96a494ff4ca2046
:10443000fef7baf900230f2b07d8644ad15c654a0e
:10444000d25c914223d10133f5e701230bbb00205d
:10445000fef7e0f96520fef7ddf95b4c4ff4807262
:10446000ff212046fcf7fefb10225849204609f0a8
:104470001df821466520fef757f90023019301221c
:10448000009280225449554806f076ff5be00023f5
:10449000dce7fff717fff0e7514b5a68514c2262f7
:1044a0009a686262d3ed047afceee77a17ee902afe
:1044b000a282d3ed097abceee77a17ee102ae282e7
:1044c00093ed437a67ee877adfed476a87eea67a47
:1044d000bceec77a17ee103a23830023a38740214e
:1044e0002046fff779feadf80e00bdf80e30a38729
:1044f0003e4b1a683e4b1b6803eb02131b023d4ff9
:104500003b603d4d288880b22f4e4022214606eb6d
:10451000801008f0cbff38683146fef705f92b888c
:104520009bb201339bb22b802b889bb2042b1fd0f4
:1045300000231a4619462348006806f09ffa41f204
:10454000883007f013f94ff47a711e4b186806f0a3
:104550006ffc0128f7d1234ad3680533d360204b81
:104560001b7913f0010f97d013690533136193e79b
:1045700000222a801e4c2368013323604ff480728e
:10458000ff213046fcf76efb2368102bd0d10022b0
:104590002260164b1a6801321a601b68642b02d91c
:1045a000124b00221a60114c20680003fef732f90a
:1045b00020680130642800d900200003fef72af9a2
:1045c000b6e700bf80430020003d00205843002094
:1045d00068430020003c002008ef02081552020842
:1045e000583e002084430020e17ab43f7c43002001
:1045f000744300206c4300207843002030b583b022
:10460000002400944ff4e12322460121204601f0ca
:1046100089ff104d287001f0e7ff28702246042121
:10462000062006f00afa0c4b186005e00b48fef76e
:104630007cfc012007f09af801f0e8ff02f0b0f8e6
:10464000064bb3f84e319bb2642202fb03f398424f
:10465000ecdceee7cc430020d0430020583e0020a5
:10466000f0b583b0002425463de0581c264a03f2ed
:10467000966352f8233019886319c1f3072c02f8a6
:1046800003c0631c15fa83f3d1540234a4b2c3b23d
:104690009e45ead8b4f5707f22d363191a4ffe54b1
:1046a000631c15fa83f307f803e00234a4b2174b36
:1046b000186806f090fc2c4438552f44019705f2f9
:1046c000c335adb241f291639d4200d9002500236c
:1046d0004ff0ff3201a90d48006806f0cff9002421
:1046e000304607f043f80a4b93f855eabef1060f3f
:1046f00001d94ff0060e064b93f8566a06f00f06e6
:1047000001360023c4e700bfd4430020d04300207b
:10471000d453002008b506f015f8fce7374ad2f864
:10472000003843f48033c2f80038002300e00b4621
:10473000324ad2f8002812f4003f04d1591c4ff637
:10474000ff729342f3d12d4bd3f8003813f4003f9e
:1047500000d1fee7294bd3f8402842f08052c3f83d
:10476000402827490a6842f440420a60d3f80828e2
:10477000c3f80828d3f8082842f40042c3f80828f0
:10478000d3f8082842f4a052c3f808281d4ac3f8f9
:104790000428d3f8002842f08072c3f80028174b91
:1047a000d3f8003813f0007ff9d0154a136843f4aa
:1047b00080331360124b5b6813f4803ffad0104ac9
:1047c000136843f4003313600d4b5b6813f4003f30
:1047d000fad00a4bd3f8082822f00302c3f80828bd
:1047e000d3f8082842f00202c3f80828034bd3f894
:1047f000083813f0080ff9d0704700bf00300240ae
:10480000007000400854400708b5fff787ff08bd57
:1048100000b583b02b4ad2f8883043f47003c2f855
:104820008830294ad2f8003843f00103c2f8003832
:10483000254bd3f8003813f0020ff9d0224ad2f8f2
:10484000083843f08003c2f808380023019302e0df
:10485000019b01330193019b4f2bf9d91a4ad2f8de
:10486000083843f09003c2f808380023019302e0af
:10487000019b01330193019b4f2bf9d9124bd3f8c4
:10488000082822f00302c3f80828d3f8002822f0f1
:10489000847222f48032c3f80028d3f8002822f46e
:1048a0008022c3f800280022c3f80828d3f808188b
:1048b0000649c3f80418c3f80c28fff7a5ff03b096
:1048c0005df804fb00ed00e00030024010300024f1
:1048d000064bd3f8042322f4e022c3f80423d3f8d0
:1048e00004230243c3f80423704700bf00200140a3
:1048f000aab111f4807f03d0436843f4807343600e
:1049000011f4806f03d0436843f48063436011f077
:10491000020f19d0836843f002038360704711f4db
:10492000807f03d0436823f48073436011f4806f69
:1049300003d0436823f48063436011f0020f03d077
:10494000836823f002038360704721b1836843f4d6
:10495000006383607047836823f40063836070475b
:10496000836813f0010f03d1836843f00103836070
:104970007047436823f04073436043680b434360d0
:104980007047836843f4807383607047836843f49f
:10499000007383607047012902d002290ed070474e
:1049a000013a0f2a17d8c36a23f47003c362c36a9b
:1049b000120502f470021343c3627047013a032ade
:1049c00009d8836b23f440138363836b120502f4cd
:1049d000401213438363704710b405291fd8446bfa
:1049e00001eb81014ff01f0c0cfa01fc24ea0c0cc6
:1049f00002fa01f141ea0c014163092a31d8016947
:104a000002eb42024ff0070c0cfa02fc21ea0c0107
:104a100003fa02f20a4302615df8044b70470b2966
:104a20000ed8046b063901eb81014ff01f0c0cfa14
:104a300001fc24ea0c0402fa01f121430163dce7e2
:104a40000f29dad8c46a0c3901eb81014ff01f0c31
:104a50000cfa01fc24ea0c0402fa01f12143c162c0
:104a6000cbe7122ad8d8c1680a3a02eb42020724df
:104a7000944021ea040193400b43c360cce7012931
:104a800002d0022908d07047836823f070638360e6
:104a90008368134383607047836823f470238360c3
:104aa0008368134383607047012902d0022909d02b
:104ab0007047836823f040538360836843ea02733e
:104ac00083607047836823f440138360836843eafc
:104ad0000253836070470000064bd3f8042322f092
:104ae0001f02c3f80423d3f804230243c3f80423aa
:104af000704700bf0020014008b50a4b984208d01b
:104b000040f61a0000f033fc40f61a0000f03cfcbe
:104b100008bd40f6190000f02afc40f6190000f02c
:104b200033fcf5e700640040032841d8dfe800f0db
:104b300002132d3e00234b710122ca718b7140f28a
:104b4000ff3048810a724b7002228a70cb700b7161
:104b50004b720b7070470123cb8100230b740b81c8
:104b60000b804b808b80cb808b814b817047ca1828
:104b70000020d0720133dbb2072bf8d900238b72ef
:104b80004b600b724b720b6070470023f4e7ca183e
:104b90000020d0720133dbb2072bf8d900238b72cf
:104ba0004b600b72cb744b720b6070470023f3e7c2
:104bb000fee7036823f002030360036843f0010388
:104bc00003604ff6ff7300f1040c426812f0010f0e
:104bd00002d10bb1013bf6e7dcf8003013f0010f16
:104be00070d00a784b781b0603f0407343ea827357
:104bf0008a78120402f470221343ca78120502f470
:104c0000e00213434a89013ac2f309021343c36124
:104c10000b79012b2dd0036823f0800303604b79bf
:104c2000012b2bd0036823f0400303608b79012b09
:104c300029d0036823f020030360cb79012b27d010
:104c4000036843f0100303600b7a012b25d003683f
:104c500043f0080303604b7a012b23d0036823f051
:104c600004030360036823f0010303604ff6ff733e
:104c70001ee0036843f080030360d0e7036843f05d
:104c800040030360d2e7036843f020030360d4e7e6
:104c9000036823f010030360d6e7036823f00803da
:104ca0000360d8e7036843f004030360dae7013bdd
:104cb000dcf8002012f0010f01d0002bf7d11bb956
:104cc00000207047002070470120704700b54289de
:104cd00001239340434ad2f8001641f00101c2f883
:104ce0000016d2f81c166fea030c21ea0301c2f881
:104cf0001c16c289f2b93b49d1f80c260cea020213
:104d0000c1f80c26b0f806e04188428902f1006241
:104d100002f6c842d20041ea0e411160b0f804e048
:104d20000188428902f1006202f6c842d20041eadb
:104d30000e415160c289012a1fd08289002a3bd1cd
:104d40002849d1f804260cea0202c1f80426028997
:104d5000002a38d12349d1f814260cea0202c1f8fe
:104d60001426027c012a35d01e4ad2f8003623f0e0
:104d70000103c2f800365df804fb1a49d1f80c268d
:104d80001a43c1f80c26b0f800e04188428902f1cc
:104d9000006202f6c842d20041ea0e411160b0f84a
:104da00004e0c188428902f1006202f6c842d200e2
:104db00041ea0e415160c0e70a49d1f804261a437e
:104dc000c1f80426c3e70749d1f814261a43c1f8ed
:104dd0001426c6e70349d1f81c261343c1f81c3634
:104de000c2e700bf006000400346826812f0806f97
:104df00009d1826812f0006f4fd1826812f0805f93
:104e00005ad0022000e0002030b403eb0013d3f8a6
:104e1000802102f00102c3f880210a7a002a3ed1e3
:104e2000d3f880214c7a0d6844ea45542243c3f8f4
:104e30008021d3f8842122f00f02c3f88421d3f813
:104e4000842191f80ac042ea0c02c3f8842191f847
:104e50000ec04a7b120442ea0c6291f80cc042ea8e
:104e60000c2291f80bc042ea0c02c3f8882191f899
:104e700012c04a7c120442ea0c6291f810c042ea65
:104e80000c22c97b0a43c3f88c21d3f8802142f05d
:104e90000102c3f8802130bc70470120b4e7d3f889
:104ea00080414d6842eac50291f809c042ea0c020d
:104eb0002243c3f88021bce70320704710b400eb05
:104ec0000113d3f8b04104f004041472002c3cd157
:104ed000d3f8b041640d1460d3f8b04104f002047b
:104ee0005472d3f8b441c4f30724d474d3f8b44152
:104ef00004f00f049472d3f8b841d472d3f8b841d7
:104f0000c4f307241473d3f8b841c4f307445473ab
:104f1000d3f8b841240e9473d3f8bc41d473d3f8ba
:104f2000bc41c4f307241474d3f8bc41c4f3074450
:104f30005474d3f8bc311b0e937459b9c36843f051
:104f40002003c3605df8044b7047d3f8b041e40818
:104f50005460c1e7036943f020030361f2e743694a
:104f60000b4343617047436923ea01034361704780
:104f700001eb410300ebc3031a6922f001021a613d
:104f800000221a615a619a61da611a625a6203292f
:104f90000cd8836801eb4102c1f34001890001eba9
:104fa00042013d228a401343836070470439c9b2ed
:104fb000c36801eb4102c1f34001890001eb4201ea
:104fc0003d228a401343c3607047002303600122df
:104fd00042608360c260036142618361c3610362b6
:104fe000704710b401eb410100ebc100436a23f0ac
:104ff00004034362136883619368c361d3694361a7
:10500000016921f45e3121f0c001136943ea830391
:10501000146a2343946923430b430361536893b990
:10502000036943f400730361d368c3b9036943f4ac
:10503000806303615369bbb9036943f480730361ff
:105040005df8044b7047012b04d0036943f400431f
:105050000361e9e7036923f400730361e4e703698b
:1050600023f480630361e5e7036923f4807303613c
:10507000e6e701eb410100ebc1004261704701eb43
:10508000410100ebc1004069704701eb410100ebb9
:10509000c100036943f480730361704701eb410170
:1050a00000ebc100036923f480730361704701ebd7
:1050b000410100ebc100036943f001030361704744
:1050c00001eb410100ebc100036923f0010303611f
:1050d000704701eb410100ebc100036923f06063fd
:1050e00043ea42630361704703290bd8836801ebed
:1050f000410cc1f34001890001eb4c018a4013438c
:10510000836070470439c9b2c36801eb410cc1f335
:105110004001890001eb4c018a401343c360704792
:10512000802a07d001eb410100ebc1000369134362
:105130000361704701eb410100ebc100436a134377
:1051400043627047f0b50568c6684ff0000c03e095
:105150000cf1010c1ffa8cfcbcf10f0f18d84ff0aa
:10516000010e0efa0cfe1eea030ff1d04fea4c04ba
:105170004ff0030e0efa04fe25ea0e0501fa04f7bd
:105180003d4326ea0e0e02fa04f444ea0e06dfe777
:105190000560c660f0bd10b5012906d0416821ea5e
:1051a000030141608468002105e0416819434160c2
:1051b000f8e7013189b20f2913d84ff0010c0cfa2e
:1051c00001fc1cea030ff4d04fea410c4ff0030e30
:1051d0000efa0cfe24ea0e0402fa0cfc4cea04045b
:1051e000e7e7846010bd81617047816270470369a1
:1051f0000b4201d0012070470020704730b5046a8f
:10520000456a002301e001339bb2072b13d84ff00e
:10521000010c0cfa03fc1cea020ff4d04fea830ed7
:105220004ff00f0c0cfa0efc24ea0c0401fa0efeef
:105230004eea0404e7e7082301e001339bb20f2b99
:1052400015d84ff0010c0cfa03fc1cea020ff4d045
:10525000a3f1080c4fea8c0c4ff00f0e0efa0cfe67
:1052600025ea0e0501fa0cfc4cea0505e5e70462a7
:10527000456230bdc162704740f0bf6040f400300d
:10528000014bd860704700bf00ed00e070b50546e7
:105290000e461446274bdb6803f4e063b3f5e06f7a
:1052a00025d0244bdb6803f4e063b3f5c06f38d03e
:1052b000204bdb6803f4e063b3f5a06f34d01d4be3
:1052c000db6803f4e063b3f5806f30d0194bdb6823
:1052d00003f4e063b3f5407f02d10023042208e029
:1052e0004ff4a060fff7c8ff02231a4601e0042331
:1052f0000022c2f104029640c3f104030f2222faf5
:1053000003f31c4034432401e4b20b4a531983f8dd
:10531000004305f01f016d0901238b4042f8253041
:1053200070bd03230122e4e702231a46e1e70123cb
:105330000322dee700ed00e000e100e000f01f02e4
:105340004009012393402030014a42f82030704741
:1053500000e100e0830903f1804303f50e331a688e
:1053600000f01f00012181400a431a607047830941
:1053700003f1804303f50e331a6800f01f0001218a
:1053800081400a431a607047830903f1804303f5a3
:105390000e331a6800f01f000121814022ea010249
:1053a0001a6070476ff08073984206d0064ad2f8b0
:1053b0008c380343c2f88c387047034ad2f88c38d3
:1053c0000340c2f88c3870470030024010b588b0f6
:1053d0008446344c94e80f000df1200e0ee90f00c6
:1053e00002ab103494e8030083e803006b4683e8c3
:1053f00003002d4bd3f80838c3f38103012b1fd0d2
:10540000022b1fd1284ad2f8044804f03f04d2f8f6
:105410000418c1f38811d2f80438c3f301430133ef
:105420005b00d2f8042812f4800f07d01f48b0fbad
:10543000f4f001fb00f0b0fbf3f004e01c48f6e7e9
:105440001a4800e01a481849d1f80838c3f3031382
:1054500020336b4413f8102c20fa02f2d1f80838ec
:10546000c3f3822320336b4413f8183c22fa03f46d
:10547000d1f80838c3f3423320336b4413f8203c8f
:1054800022fa03f3bcf1030f03d8dfe80cf00504a4
:105490000709002000e0104608b010bd2046fbe7d9
:1054a0001846f9e794ee02080030024000127a0034
:1054b0000024f40008b5264b984237d01dd8a3f538
:1054c0007843984229d003f57443984208d140f6b6
:1054d0000c10fff74cff40f60c10fff755ff08bd0e
:1054e000a3f578439842fad140f60e00fff73fff4c
:1054f00040f60e00fff748fff1e7164b98421ed02a
:1055000003f580639842ead140f61510fff72fffac
:1055100040f61510fff738ffe1e740f60f00fff700
:1055200026ff40f60f00fff72fffd8e740f60d10db
:10553000fff71dff40f60d10fff726ffcfe740f6ff
:105540001410fff714ff40f61410fff71dffc6e715
:105550000034014000500140002303604360836039
:10556000c3604361836103617047026802f4415282
:105570000b681a434b681a438b681a43cb681a436b
:105580000b691a434b691a438b6913430360c36960
:1055900023f40063c3617047036843f04003036072
:1055a0007047436843f0040343607047036823f483
:1055b00080730360704721b9436843f0020343607e
:1055c0007047436843f001034360704721b9436863
:1055d00023f0020343607047436823f001034360f4
:1055e0007047c1607047c06880b27047436823f05d
:1055f000100343607047012908d002290bd001b184
:105600007047436843f0800343607047436843f04a
:10561000400343607047436843f020034360efe773
:10562000012908d002290bd001b17047436823f04b
:10563000800343607047436823f040034360704732
:10564000436823f020034360efe783680b4201d0f7
:10565000012070470020704708b55b4b984200f06e
:10566000a9803fd8a3f5805398427fd010d9574bdb
:10567000984200f0848003f58063984225d140f67b
:105680000600fff774fe40f60600fff77dfe63e0bc
:10569000a3f50063984260d003f58063984208d177
:1056a00040f60200fff763fe40f60200fff76cfed3
:1056b00052e0b0f1804f4fd14ff40060fff757fe3a
:1056c0004ff40060fff760fe46e0a3f500639842e8
:1056d00042d140f60400fff74afe40f60400fff70f
:1056e00053fe39e03a4b984252d00fd9394b984289
:1056f00057d003f5806398422ed140f61210fff781
:1057000036fe40f61210fff73ffe25e0a3f580437a
:10571000984219d003f58063984208d140f60110f1
:10572000fff725fe40f60110fff72efe14e0a3f56b
:105730006443984210d140f60800fff718fe40f687
:105740000800fff721fe07e04ff41060fff70ffe9f
:105750004ff41060fff718fe08bd40f60100fff798
:1057600006fe40f60100fff70ffef5e740f60300e6
:10577000fff7fdfd40f60300fff706feece740f6fd
:105780000500fff7f4fd40f60500fff7fdfde3e738
:105790004ff41160fff7ebfd4ff41160fff7f4fddc
:1057a000dae740f61110fff7e2fd40f61110fff7bf
:1057b000ebfdd1e740f60700fff7d9fd40f6070003
:1057c000fff7e2fdc8e700bf001c004000140040e6
:1057d00000400140004401400b888362204b984206
:1057e00012d0b0f1804f0fd0a3f57c4398420bd07c
:1057f00003f58063984207d003f58063984203d095
:1058000003f5784398420bd1036823f070030360db
:1058100003684a881343036003688a88134303605c
:105820008b68c3620f4b98420bd003f5806398429c
:1058300007d0036823f4407303600368ca881343e6
:105840000360074b984203d003f58063984201d16f
:105850000b7b0363436943f001034361704700bf5f
:105860000000014000100040036843f001030360a2
:105870007047036823f002030360704781621ab91e
:10588000436943f001034361704770b50d884e884a
:105890008c88b1f806e0b1f808c04a898b8945eade
:1058a000060121434eea01014cea01010a43134378
:1058b000436470bd012904d0436c23f40043436466
:1058c0007047436c43f4004343647047032900f27c
:1058d000ee80dfe811f0040041008400c600036a96
:1058e00023f001030362836923f003038361036ae6
:1058f00011880b430362036a23f002030362036a05
:1059000091880b4303626a4b984204d003f580638d
:10591000984240f0cc80036a23f004030362036ad8
:1059200051880b430362036a23f008030362036a8e
:10593000d1880b430362436823f480734360436858
:1059400011890b434360436823f400734360436849
:105950005289134343607047036a23f010030362c4
:10596000836923f440738361036a118843ea011356
:105970000362036a23f020030362036a918843ea07
:10598000011303624a4b984204d003f580639842a6
:1059900040f08d80036a23f040030362036a51885c
:1059a00043ea01130362036a23f080030362036a7c
:1059b000d18843ea01130362436823f480634360a0
:1059c0004368118943ea81034360436823f4006319
:1059d00043604368528943ea820343607047036a25
:1059e00023f480730362c36923f00303c361036a72
:1059f000118843ea01230362036a23f400730362fc
:105a0000036a918843ea01230362294b984203d039
:105a100003f5806398424ad1036a23f480630362ea
:105a2000036a518843ea01230362036a23f4006393
:105a30000362036ad18843ea01230362436823f4c3
:105a4000805343604368118943ea0113436043680c
:105a500023f4005343604368528943ea02134360ce
:105a60007047036a23f480530362c36923f44073cd
:105a7000c361036a118843ea01330362036a23f4b2
:105a800000530362036a918843ea01330362084bbf
:105a9000984203d003f58063984208d1436823f409
:105aa000804343604368128943ea8213436070472e
:105ab00000000140032924d8dfe801f0020a131b8b
:105ac000836923f0700383618369134383617047a3
:105ad000836923f4e0438361836943ea022383619a
